:020000040002F8
:1060000080D70020C5630200CD630200CF63020089
:10601000D1630200D3630200D563020000000000D8
:10602000000000000000000000000000D763020034
:10603000D963020000000000DB630200DD630200A0
:10604000C1770200DF630200CD88020025810200D3
:10605000DF630200DF630200916E02007D7F0200B9
:1060600091880200A5880200B9880200917C020094
:10607000DF630200DF630200DF630200DF63020010
:10608000DF630200A17C0200DF630200DF63020025
:1060900099830200DF6302009D830200DF63020038
:1060A000DF630200DF630200DF630200DF630200E0
:1060B000DF630200DF630200000000000000000058
:1060C000DF630200DF630200DF630200DF630200C0
:1060D000DF630200DF630200DF63020000000000F4
:1060E00000000000000000000000000000000000B0
:1060F00000000000000000000000000000000000A0
:10610000000000000000000000000000000000008F
:10611000000000000000000000000000000000007F
:10612000000000000000000000000000000000006F
:10613000000000000000000000000000000000005F
:10614000000000000000000000000000000000004F
:10615000000000000000000000000000000000003F
:10616000000000000000000000000000000000002F
:10617000000000000000000000000000000000001F
:10618000000000000000000000000000000000000F
:1061900000000000000000000000000000000000FF
:1061A00000000000000000000000000000000000EF
:1061B00000000000000000000000000000000000DF
:1061C00000000000000000000000000000000000CF
:1061D00000000000000000000000000000000000BF
:1061E00000000000000000000000000000000000AF
:1061F000000000000000000000000000000000009F
:10620000DFF810D000F00EFD00480047B9F302009F
:10621000AFF3008080D7002030B4044654E8000F6C
:106220000D4644E80053002BF8D1156030BC704790
:1062300030B4044654E8000F40EA010544E8005336
:10624000002BF7D1156030BC704730B4044654E8D9
:10625000000F00EA010544E80053002BF7D1156058
:1062600030BC704730B4044654E8000F80EA0105A2
:1062700044E80053002BF7D1156030BC704730B4B0
:10628000044654E8000F00EB010544E80053002BDE
:10629000F7D1156030BC704730B4044654E8000FA5
:1062A000A0EB010544E80053002BF7D1156030BC8A
:1062B000704770B404464FF0000054E8006F0D685A
:1062C000AE4207BF44E80023012044E800630E60AB
:1062D000002B1CBF0020F0E770BC704730B40446B0
:1062E00054E8000F88422CBF451A054644E8005385
:1062F000002BF5D1156030BC7047000030B450E879
:10630000012F93B2C48923448489A34228BF1B1B55
:106310000489A34202BFBFF32F8F002007E0C3EA26
:10632000020340E80134002CE9D14FF001000A607B
:1063300030BC704750E8012FC2EA024240E8012118
:106340000029F7D1704730B450E8022F1FFAA2F3AA
:10635000C488A34202BFBFF32F8F00200DE0C48981
:1063600023448489A34228BF1B1BC2EA034340E89D
:106370000234002CE8D14FF001000A6030BC7047B5
:1063800050E8022FC2EA224240E802210029F7D158
:106390007047034653E8022FD988B2EB324F4FF0D3
:1063A000000017BF92B241EA014142EA014104E014
:1063B0005A68B2EB324F08BF012043E80212002AAC
:1063C000E8D170470648804706480047FEE7FEE7E9
:1063D000FEE7FEE7FEE7FEE7FEE7FEE7FEE7FEE795
:1063E000B9850200016202002DE9F05F0546002038
:1063F00092469B4688460646814640241BE0284636
:1064000041464746224600F02FF853465A46C01AE6
:10641000914110D311461846224600F016F82D1A65
:1064200067EB01084F4622460120002100F00DF8DD
:1064300017EB00094E41201EA4F10104DFDC4846A1
:1064400031462A464346BDE8F09F202A04DB203A25
:1064500000FA02F1002070479140C2F1200320FAB7
:1064600003F3194390407047202A04DB203A21FAB5
:1064700002F00021704721FA02F3D040C2F120025D
:1064800091400843194670470048704734C30300E1
:106490002DE9FE43994615468846074601AC022978
:1064A00042D3002D40D000200290A8F101004FF00F
:1064B000FF36009022E000FB057201FB05701146DB
:1064C0004A469047002805DC54F82600304444F83A
:1064D000260013E060682A4600FB057154F8040C9E
:1064E00000FB057007E00B7890F800C001F801CBC5
:1064F00000F8013B521E002AF5D1764254F8040CF4
:1065000061688842D7DC4B462A463846FFF7C0FF11
:1065100054F8040C4B46A8EB0001401C00FB05702E
:106520002A46491EFFF7B4FFBDE8FE83002800DAC3
:106530004042704740EA01039B0703D009E008C9C5
:10654000121F08C0042AFAD203E011F8013B00F838
:10655000013B521EF9D27047D2B201E000F8012B84
:10656000491EFBD270470022F6E710B513460A46D3
:1065700004461946FFF7F0FF204610BD421C10F8F4
:10658000011B0029FBD1801A704730B5044600205A
:10659000034600E05B1C934203D2E05CCD5C401BF1
:1065A000F8D030BD034611F8012B00F8012B002A6A
:1065B000F9D1184670472DE9FE4F804681EA030065
:1065C000C00F0C46009021F0004123F00045B8EBCD
:1065D0000200A94105D24046214690461C460B4682
:1065E000024623F00040104347D0270DC7F30A00AE
:1065F000C3F30A510290401A019040286BDAC3F3AA
:10660000130040F4801B0098924620B10023D2EB87
:10661000030A63EB0B0B01985946C0F14002504648
:10662000FFF713FF06460D4650465946019A00F003
:10663000F7F910EB08006141002487EA115284EA5F
:10664000E7731A4340D0009A62B3019A012A4FEAD5
:10665000075215DC001B61EB02014FF0004202EA19
:106660000752CDE90042001C41F5801132462B460D
:1066700000F02EFA03B0BDE8F08F40462146F9E75E
:10668000001B61EB0201001C41F5801300185B4107
:106690002018A2F5001747EB030140EAD570B619A0
:1066A0006D4111E06D084FEA360645EAC0754FEAC4
:1066B0000752001B61EB0201001C41F580114908E3
:1066C0004FEA30000019514132462B4603B0BDE875
:1066D000F04F00F0EEB90098012240000023D0EB0B
:1066E000020263EBE073009821464FEAE074B8EBD6
:1066F000000061EB0401E9E783F000435BE781F010
:10670000004158E72DE9FE4F81EA030404F00044FC
:1067100021F0004100944FF0000B23F0004350EAB9
:1067200001045ED052EA03045BD0C3F30A54C1F300
:106730000A552C44A4F2F3340194A0FB0254C1F393
:10674000130141F48011C3F3130343F4801301FBDD
:10675000024400FB034E840A970A44EA815447EA44
:106760008357A4FB076802958D0A05FB07854FEA4E
:10677000932C04FB0C542705029D4FEA065847EA68
:106780001637B5EB08056EEB070C870E920E47EA3D
:10679000811742EA8312A7FB0201B6EB0B0164EBFF
:1067A00000042B0D43EA0C335E1844EB1C50DA4610
:1067B0005146E7FB0201C5F313044FEA0B3343EAEA
:1067C00014534FEA0432019C43EA0603A4F10C047B
:1067D0000294009CCDE900B400F07AF903B0BDE862
:1067E000F08F00200146F9E72DE9F04D81EA03041E
:1067F00004F0004B21F0004514464FF0000A23F04E
:10680000004150EA050220D054EA01021DD0C5F330
:106810000A570246C5F31303C1F31300C1F30A5626
:1068200040F4801543F48013A7EB0608101BD646EE
:1068300008F2FD3873EB050002D308F1010801E00E
:1068400092185B41B8F1000F03DA00200146BDE861
:10685000F08D00204FF48011064684460EE0171B91
:1068600073EB050705D3121B63EB050306434CEAE4
:10687000010C49084FEA300092185B4150EA0107C9
:10688000EDD152EA030012D082EA040083EA050146
:10689000084305D0101BAB4106D20122002306E0BD
:1068A00000224FF0004302E06FF0010253101AEB98
:1068B00006004CEB085110EB0A0041EB0B01BDE860
:1068C000F04D00F0F6B80EB5C10F80EAE070084454
:1068D000CA07002140F233438DE80E000A460B46FA
:1068E00000F0F6F803B000BD0EB540F2334102915E
:1068F0000021CDE900110A460B4600F0E9F803B08B
:1069000000BDC1F30A5210B5C1F3130140F2FF33C9
:1069100041F480119A4201DA002010BD40F2334365
:106920009A42A2F2334203DC5242FFF79DFD10BDB2
:10693000904010BD00F0004230F000400AD0C10D80
:1069400001F56071C0F3160042EA0151C208400728
:1069500011437047002001467047000030B5041E07
:1069600071F1000404DB4FF00044404264EB01018C
:10697000141E73F1000405DB1C464FF00043524225
:1069800063EB04038B4208BF824230BD30B5041E66
:1069900071F1000404DB4FF00044404264EB01015C
:1069A000141E73F1000405DB1C464FF000435242F5
:1069B00063EB0403994208BF904230BD01F00043ED
:1069C00030B421F0004150EA010206D00A0DA2F5D0
:1069D0006072C1F31301002A02DC30BC0020704752
:1069E000440F44EAC104C100E01830BC00EBC250BF
:1069F00000F028B830B50B460146002020220124C3
:106A000009E021FA02F59D4205D303FA02F5491B7C
:106A100004FA02F52844151EA2F10102F1DC30BD92
:106A2000202A06DBCB17203A41FA02F043EAE07352
:106A300006E041FA02F3D040C2F12002914008433F
:106A4000194670470029A8BF7047401C490008BF7D
:106A500020F00100704710B4B0FA80FC00FA0CF08E
:106A600050EA010404BF10BC704749B1CCF12004C6
:106A700021FA04F411FA0CF118BF01212143084353
:106A8000A3EB0C01CB1D4FEA00614FEA102042BF7F
:106A9000002010BC704700EBC35010440029A4BF75
:106AA00010BC7047401C490008BF20F0010010BC1A
:106AB000704710B5141E73F1000408DA401C41F150
:106AC000000192185B411A4301D120F0010010BD72
:106AD0002DE9F04D92469B4611B1B1FA81F202E0E8
:106AE000B0FA80F220329046FFF7AFFC04460F4622
:106AF00040EA0A0041EA0B0153465A46084313D0C4
:106B0000114653EA010019D0C8F140025046FFF780
:106B1000ABFC05460E46504659464246FFF795FCEB
:106B2000084305D0012004E020463946BDE8F08D39
:106B30000020054346EAE0762C4337430A98630574
:106B4000E40AA0EB08000022FD0A44EA47540A3098
:106B500002D500200146E9E7010510196941DDE988
:106B6000084500196941BDE8F04DA2E72DE9F04163
:106B7000054621F000400C46284309D0C4F30A50D2
:106B800040F23341884205DD28462146BDE8F081C8
:106B90002846FBE740F2FE31884210DC0CDB4FEA6E
:106BA000043040EA155050EA053105D0104804F091
:106BB000004101430020E9E700200146E6E7A0F29A
:106BC00033404642C6F1400228462146FFF73DFCCD
:106BD00007468846284621463246FFF745FC43468D
:106BE0003A46FFF766FF3246BDE8F041FFF72DBC9D
:106BF0000000F03FC1F30A52C1F3130140F2FF332A
:106C000041F480119A4202DA00200146704740F2B6
:106C100033439A42A2F2334202DC5242FFF724BCD1
:106C2000FFF713BC064C074D06E0E06840F0010397
:106C300094E8070098471034AC42F6D3FFF7E4FA23
:106C400060DB030080DB030070B58C1810F8015B7B
:106C500015F0070301D110F8013B2A1106D110F8F5
:106C6000012B03E010F8016B01F8016B5B1EF9D1F9
:106C70002B0705D40023521E0DD401F8013BFAE77F
:106C800010F8013BCB1A921C03E013F8015B01F8EA
:106C9000015B521EF9D5A142D8D3002070BDB0EEE1
:106CA000402A20EE010A00EEE10A62EE211A40EECF
:106CB000811AF0EE610A70472DE9F04F2DED068B39
:106CC00085B004468A460020029094F81980267EFA
:106CD000A07D049094F817B0607D0390277D002577
:106CE0007AE061480068FFF7FFFD41EC180B04EB08
:106CF0004511B1F900105D4AB2F90020501AFFF7B2
:106D0000E2FD41EC1A0BB0EE4A0AF0EE6A0AFFF718
:106D10000DFCB0EE409AF0EE609A53EC182B51EC5B
:106D2000190BFFF733FE45D94F480068FFF7DCFD2C
:106D300041EC180B04EB4511B1F902104C4AB2F9C1
:106D40000020501AFFF7BFFD41EC1A0BB0EE4A0AC3
:106D5000F0EE6A0AFFF7EAFBB0EE409AF0EE609AB6
:106D600053EC182B51EC190BFFF710FE22D93E48BB
:106D70000068FFF7B9FD41EC180B04EB4511B1F9C0
:106D800004103C4AB2F90020501AFFF79CFD41EC78
:106D90001A0BB0EE4A0AF0EE6A0AFFF7C7FBB0EE34
:106DA000409AF0EE609A53EC182B51EC190BFFF758
:106DB000EDFD01D80120029004EB451000882B491D
:106DC000088004EB451040882949088004EB4510F1
:106DD0008088284908806D1C554582DB029840B1A7
:106DE000C14506D00020029023480068401C22497B
:106DF0000860C14621480068301A05282ED31F4874
:106E000006601D4800781E491E4A127888541A48A8
:106E100000681D4908601D48007810B905F0DAFACD
:106E200012E01A480078012807D1009759463046E9
:106E3000DDE9033205F080FA06E000975946304656
:106E4000DDE9033205F0DCF9009759463046DDE90B
:106E5000033200F037FF00200749086005B0BDECA1
:106E6000068BBDE8F08F0000202B0020342B002083
:106E7000362B0020382B0020242B0020302B002024
:106E8000B25400201D2B0020282B00202C2B00208A
:106E90002DE9F8430025DFF894804FF48076012433
:106EA0002F46009530460AF04BF838B1D8F8040365
:106EB000204203D030460AF039F82543361D6400DD
:106EC0007F1CB6B2082FEDD34FF4BE7420460AF0F3
:106ED00037F848B120460AF029F845F000456A46DF
:106EE0000121002009F0E2FF15F0FF0F16D0012666
:106EF00000242E420ED008EB8401D1F81005D1F801
:106F00001015C0F304200A4AC1F3014152F82420AD
:106F100002B190477600641C082CEAD3002D02DAF7
:106F200068460EF039F8BDE8F883000000600040C4
:106F3000943600200A4801780A48007808B90020F1
:106F4000704708480078012800D1F9E7062901DCDC
:106F50000320F5E71E2901DC0220F1E70020EFE71E
:106F6000282B00202C2B002010F072B810F02EBA25
:106F700070B505462DED028BF0EE408A84B09FED92
:106F80001A0A00F580508DED010A8DED020A0C46BB
:106F90008DED030A90F819191E46B0EE608A31B9DA
:106FA000012180F8191905F599600BF079FD03A806
:106FB000009002AB94EC030A01AAF0EE481A0121FA
:106FC000284610F0C3F901AB324693EC031AF0EEF9
:106FD000480AB0EE680A0121284610F049FA04B0C8
:106FE0000020BDEC028B70BD000000002DE9F041D7
:106FF00000F500642DED048BF0EE409AF0EE608A0F
:107000009FED308A94ED220A84B01F4638EE409AF4
:1070100030EE280A90460D46064684ED220A37E0F7
:10702000C9EE280A94ED1E0AD5ED001A39EE089A29
:1070300039EEC01A3B4642466946304601EE200A08
:1070400094ED1F1A71EEC11A01EEA01A8DED001A0F
:10705000D5ED011A94ED201A71EEC11A01EEA01AB5
:107060008DED011AD5ED021A94ED211A71EEC11AB7
:1070700001EEA01A8DED021AD4ED220A70EEC80AB4
:10708000C4ED220AF0EE480AFFF772FF94ED220ADF
:10709000B4EEC80AF1EE10FAC2DAC4ED1E9A95ED0C
:1070A000000A002084ED1F0A95ED010A84ED200AF4
:1070B00095ED020A84ED210A04B0BDEC048BBDE815
:1070C000F08100000000484210F0F6BB30B5A2F19C
:1070D0002805039CC92D0AD2F02B08DC282B06DBDF
:1070E0009A4204DB002902DB1CB1012C01D00020F4
:1070F00030BD00F59E601EC080ED000A012030BD4D
:10710000002A01DB002901DA0020704700F2045058
:1071100006C001207047B5EEC00AF1EE10FA04D3A4
:1071200010EE101AB1F17E5F01DD0020704700F50E
:10713000806080ED340A012070470000042901D3EB
:107140000020704701228A4000EE102AB7EE001A94
:1071500000F58060F8EEC00A81EE200ADFED090A32
:1071600060EE200AC0ED380ADFED070A60EE200A63
:10717000C0ED390ADFED050A20EE200A80ED3A0A5B
:10718000012070470000484300007A4400401C463C
:10719000042901D30020704701238B4000EE103AF0
:1071A000B7EE001A00F58060F8EEC00A81EE200A02
:1071B00000EE902A9FED0E1AF8EEE00A40EE010A6A
:1071C0009FED0C1AC0ED380A00EE902AF8EEE00AA6
:1071D00040EE010A9FED081AC0ED390A00EE902A30
:1071E000F8EEE00A40EE010AC0ED3A0A01207047CD
:1071F0000000484300007A4400401C4610B5A1F14D
:107200002804C92C08D2F02A06DC282A04DB914283
:1072100002DB1BB1012B01D0002010BD00F20C508D
:1072200080E80E00012010BD002902DB1AB1012AFE
:1072300001D000207047C0F81825C0F81C150120A7
:1072400070470000B4EEE00AF1EE10FA12D3B5EE8A
:10725000C00AF1EE10FA0DD3F5EEC00AF1EE10FA05
:1072600008D310EE101A134A914203DC10EE901A64
:10727000914201DD002070479FED0F1A60EE011A68
:1072800060EE810AFDEEE11AFDEEE00A11EE901AC1
:10729000C0F8D41410EE901AF3EE040AC0F8D81413
:1072A00020EE200ABDEEC00A10EE101AC0F8DC1461
:1072B000012070470000204100007A44B5EEC00A6A
:1072C000F1EE10FA01D20020704700F5806080EDE9
:1072D000330A01207047002901DA00207047C0F806
:1072E000EC1401207047002901DA00207047C0F833
:1072F000C8140120704700002DE9F05FDFF86091AD
:1073000007460E46D9F8040003F0B0F8564857492E
:10731000544C401AC008032101EB0045544822791F
:107320004FF0000800F1080A92B1012A3FD0022A6A
:107330007ED17C78E0067BD528464EA10AF01AF86B
:10734000F888C4F34011BDE8F05F40BA0EF008BD04
:107350003978AD296CD1A4F8088083463246394685
:10736000FFF7E8F82681BBF8020040BA0830801B1E
:1073700000B26081002817DC9BF801705E46F806B9
:1073800009D5284647A109F0F5FF84F80480C7F322
:107390004011F088D7E702202071A4F80880284621
:1073A00046A109F0E7FF37E0012020714CE0218978
:1073B0008346084432463946FFF7BCF820893044FA
:1073C00020816089801B00B2608100283CDC9BF832
:1073D00001005E46C10606D584F80480C0F3401162
:1073E000BBF80600AFE702212171A4F80880B0883D
:1073F000A14644BA7088474642BA5146002003F07D
:107400009DFBA04211D128462CA109F0B3FFF088C2
:10741000012140BA00F070F87088124A41BA504613
:10742000BDE8F05F121D00F0FDB889F8047000E0BF
:1074300014E0284628A109F09DFFF088BDE8F05F20
:1074400040BA002100F058B8D9F80400BDE8F05F58
:10745000044A4FF40031121D02F0BEBFBDE8F09F98
:1074600004C003007429002060DC0300A0DB0300DB
:10747000A04B0020726563656976652061206163B9
:107480006B207061636B61676520647572696E67FC
:10749000204D4553534147455F5245534F4C564548
:1074A0000A0000007265636569766520612061638A
:1074B0006B207061636B6167650A000077696C6CB3
:1074C0002073656E642073756363657373207265E2
:1074D00073706F6E73650A0077696C6C2073656EEC
:1074E0006420637263206661696C20726573706FDB
:1074F0006E73650A00000000054A10B59170108097
:107500000120D070022110460EF0ECFF002010BDCB
:107510008029002070B5044618481949401AC0084F
:10752000032101EB004017A109F024FF24B31B4DF8
:10753000AB202870002068702289100AA870EA70B9
:107540000020216803F0FAFA010A2971A5F1280147
:107550006871C888020AAA71E87122896281A081D3
:10756000401CC880A5F110000121818004602046E4
:107570000EF0B8FF002070BD072070BD60DC030076
:10758000A0DB030077696C6C20726573656E642004
:1075900061207061636B6167650D0A009C290020A2
:1075A0002DE9F041050005D01C4CA07B20B1042042
:1075B000BDE8F0810720FBE7194E4FF0010884F881
:1075C0000E80AB203070002777702A89100AB070C7
:1075D000F2703846296803F0B1FA010A3171A6F158
:1075E00028017071C888020AB271F0716A6862601D
:1075F0002A6822602A8922812A896281E773A08110
:10760000401CC88001F118000121A0F8048004602A
:1076100020460EF067FF0020CAE70000904B0020D4
:107620009C29002010B5144648B141B101788078FA
:10763000022906D0042907D0052917D10FE0072019
:1076400010BD05F0EFFD11E0072802D0062803D099
:107650000CE003F03FFA09E003F056FA06E00549B2
:1076600001EB800151F8041C01B188470020207013
:1076700010BD0000A42900207FB504460D46054B2F
:107680000FCB8DE80F005DF8242003A1284601F000
:10769000B1F97FBD48C203002573000001460029EF
:1076A00001DA484200E0084600B270473D4A1278CD
:1076B00022F060023B4B1A703B4A1278012A35D106
:1076C0003A4AB2F90020904264DA394AB2F900200D
:1076D00090425FDA354AB2F90020354BB3F90030F9
:1076E0009A4203DD314AB2F9002002E0304AB2F991
:1076F00000200A80B1F900202E4BB3F90030D21AD5
:10770000182A47DD0A882C4B1A801A461288294B02
:107710001B88D21A294B1A80FF22234B1A70214A48
:10772000127842F040021F4B1A7033E01F4AB2F940
:10773000002090422EDD1E4AB2F90020904229DD41
:107740001A4AB2F900201A4BB3F900309A4203DA10
:10775000164AB2F9002002E0154AB2F900200A8068
:10776000B1F90020144BB3F900309A1A182A11DD30
:107770000A88104B1A80104A12881B88D21A0F4BA5
:107780001A800122084B1A70064A127842F0200231
:10779000044B1A70054AB2F90020054B1A80034ABF
:1077A00010807047482B0020A62B0020A22B002021
:1077B000A42B0020AA2B0020A82B0020542B002053
:1077C0002DE9F0414FF48076304608F0B5FE234CA9
:1077D000B50560B1304608F0B6FE0120C5F80803D3
:1077E000607920B9012060712168002088474FF43A
:1077F0008276304608F0A0FE40B1304608F0A3FE85
:107800000220C5F808032168012088474FF48876D4
:10781000304608F091FE40B1304608F094FE10204A
:10782000C5F808032168022088474FF48677384658
:1078300008F082FE00280ED009480026066038466F
:1078400008F081FE0820C5F80803A6712168BDE88C
:10785000F04103200847BDE8F0810000C027002068
:10786000340C004010B5044C2068002803D000F010
:1078700005F80020206010BD642A002010B50446E1
:107880000078002808D0201DFFF76EFB0020207034
:1078900004F58054C4F8200910BD000001480068B8
:1078A00000F002B8642A002000F58051002291F80F
:1078B0001B0981F81B2970470149096800F002B8CB
:1078C000642A002070B505460C46084600F03CF8D6
:1078D00041F61010005D00280CD004F5C054064994
:1078E000D4F814012860884203DD9FED040A85ED79
:1078F000000A012070BD00000000C8420000C8421C
:107900000149096800F002B8642A002001F5C0515D
:1079100091ED430A80ED000A7047000070B5040045
:1079200002D0084D286808B1002070BD00F0AAF808
:1079300001462046FEF717FE20462C6000F004F8B2
:10794000012070BD642A002070B50446007800282C
:1079500011D141F64C112046FEF705FE04F5805585
:107960004FF0FF31201DC5F83819FFF7FFFA01214C
:10797000217085F8481970BD014B1B6800F002B8F2
:10798000642A00202DE9FF4F04462DED028B81B0C3
:1079900000781D464FF00008012804D040B14FF098
:1079A0000208022838D8E07A000608D4032032E022
:1079B000012001B0BDEC028B04B0BDE8F08F60790E
:1079C00018B9A07908B9E07920B31846FFF7BCFFD1
:1079D000A07A0090607A217900EE100A2078F8EE03
:1079E000400A00EE100A0320B8EE400A80EE808ABA
:1079F000225C401E42EA012110F0FF00F8D100EEA7
:107A0000101A81464FF0010AF8EE408ACB4605F580
:107A100080561FE004208046281DFFF755FB2BE011
:107A20005FF00007DDE90413F0EE480AB0EE680AE3
:107A3000281D009AFFF7DAFA10B1C6F8200901E014
:107A4000C6F820B97F1CFFB25745EBD309F10100FE
:107A500000F0FF0921784945E2D8D6F83809411CE1
:107A60000CD0401CC0B2C6F83809217A884203D035
:107A70004FF00608C6F8381940469AE7207AC6F84B
:107A80003809F9E741F64C107047000038B5034C4F
:107A90002468009400F004F838BD0000642A002037
:107AA0002DE9F04180462DED028B82B0B0EE408A88
:107AB0000A9C1D4616460F462046FFF745FFB0EECE
:107AC000480A33463A464146201D0095FFF7FEFA24
:107AD00002B00120BDEC028BBDE8F081014A1268C2
:107AE00000F002B8642A002070B506460D46144620
:107AF0001046FFF729FF2A463146201DFFF700FBFD
:107B0000012070BD0148006800F002B8642A00201E
:107B100010B504462DED028BB0EE408AFFF714FF3E
:107B2000B0EE480A201DFFF7F6FABDEC028B0120EB
:107B300010BD00000149096800F016B8642A002051
:107B4000014A126800F002B8642A002070B50646A7
:107B50000D4614461046FFF7F7FE2A463146201D13
:107B6000FFF716FB012070BD70B505460C460846B0
:107B7000FFF7EAFE2946201DFFF7E0FA012070BD5D
:107B8000014B1B6800F002B8642A00202DE9F04187
:107B9000074615460E461C461846FFF7D5FE2B46EF
:107BA00032463946201DFFF729FB0120BDE8F08150
:107BB000014A126800F002B8642A002070B5064637
:107BC0000D4614461046FFF7BFFE2A463146201DDB
:107BD000FFF72AFB012070BD0148006800F002B8E1
:107BE000642A002010B504462DED028BB0EE608AA9
:107BF000F0EE408AFFF7A8FEF0EE480AB0EE680A01
:107C0000201DFFF71FFBBDEC028B012010BD000003
:107C10000148006800F002B8642A002010B504464C
:107C20002DED028BB0EE408AFFF78EFEB0EE480AD3
:107C3000201DFFF743FBBDEC028B012010BD0000AF
:107C40000149096800F002B8642A002070B50546B1
:107C50000C460846FFF778FE2946201DFFF73BFB40
:107C6000012070BD0149096800F002B8642A0020B3
:107C700070B505460C460846FFF766FE2946201DEE
:107C8000FFF731FB012070BD00487047A19F040041
:107C900003220021014807F05FB8000000B0004057
:107CA00007480021C0F84011C0F84411C0F848113D
:107CB000C0F84C11C0F80011C0F8041112F0BCBD9E
:107CC0000010014070B5049C194D2D68854205D007
:107CD000174D2D68174E3560154D2860164D2D68CF
:107CE0008D4205D0144D2D68144E3560124D29601B
:107CF000134D2D68954205D0114D2D68114E3560FC
:107D00000F4D2A60104D2D689D4205D00E4D2D68F7
:107D10000E4E35600C4D2B600D4D2D68A54205D0E3
:107D20000B4D2D680B4E3560094D2C6070BD000069
:107D3000002B0020142B0020FC2A0020102B0020F8
:107D4000F82A00200C2B0020F42A0020082B002009
:107D5000F02A0020042B00202DE9F04F099C054655
:107D60000E4617469C46A0463C2801D93C3D10E0F3
:107D700005464E1E69B91726571E012A09D1DFF89C
:107D8000E490D9F80070012B03D14FF00C0CA4F152
:107D90000108DFF8D4A09AF800A00AEB4A0B0BEB1D
:107DA000CA0ADFF8C8B00BF80A50DFF8BCA09AF88E
:107DB00000A00AEB4A0B0BEBCA0ADFF8B0B0DA44BA
:107DC0008AF80160DFF8A0A09AF800A00AEB4A0B3D
:107DD0000BEBCA0ADFF894B0DA448AF80270DFF8D5
:107DE00088A09AF800A00AEB4A0B0BEBCA0ADFF84E
:107DF0007CB0DA448AF803C0DFF86CA09AF800A0DF
:107E00000AEB4A0B0BEBCA0ADFF860B0DA448AF8D7
:107E100004804FF0AA09DFF850A09AF800A00AEBFE
:107E2000CA0ADFF84CB00BF83A90DFF83CA09AF899
:107E300000A00AEBCA0A0BEBCA0A8AF80190DFF825
:107E400028A09AF800A00AEBCA0A0BEBCA0A8AF823
:107E500002904FF00309DFF81CA08AF80090BDE8FB
:107E6000F08F00000C2B00201B2B0020285000203E
:107E7000C25000201C2B00202DE9F04F099C054624
:107E80000E4617469C46A046142801D9143D11E021
:107E900000F128054E1E69B91726571E012A09D17F
:107EA000DFF8C890D9F80070012B03D14FF00C0C0B
:107EB000A4F10108DFF8B8A09AF800A00AEB4A0B79
:107EC0000BEBCA0ADFF8ACB0DA448AF80550DFF8E9
:107ED000A0A09AF800A00AEB4A0B0BEBCA0ADFF845
:107EE00094B0DA448AF80660DFF884A09AF800A01B
:107EF0000AEB4A0B0BEBCA0ADFF878B0DA448AF8CF
:107F00000770DFF86CA09AF800A00AEB4A0B0BEBA5
:107F1000CA0ADFF860B0DA448AF808C0DFF850A077
:107F20009AF800A00AEB4A0B0BEBCA0ADFF844B040
:107F3000DA448AF80980DFF8409099F80090A9F1B6
:107F40000109DFF82CA09AF800A00AEB4A0B0BEB12
:107F5000CA0ADFF820B0DA448AF80A904FF0000924
:107F6000DFF814A08AF80090BDE8F08F0C2B0020F9
:107F70001B2B0020285000201C2B00202DE9FE4345
:107F80004FF48278404609F007FC4C4F00254C4CDA
:107F9000012600B3404609F007FC94F82E0010B10A
:107FA00094F82F10D1B18DF80050616801912189AA
:107FB000ADF80810E26832B1218B618362602181E3
:107FC000E56010B102E0257400E03E60216868467B
:107FD000884784F82F5094F82E0060B34FF48077D0
:107FE000384609F0D9FB30B3384609F0DDFB628B27
:107FF00094F82D108A420AD9A2EB010080B2608366
:108000002289A2EB0000626802EB400005E007D184
:10801000E06828B184F82F60658309F0ABFB04E0C9
:108020008A4202D184F82F606583404609F0BCFB88
:108030002248001D06604FF48877384609F0ACFBF3
:1080400048B1384609F0B0FB257402208DF80000D5
:108050002168684688474FF48A77384609F09CFBC8
:1080600028B1384609F0A0FB2574BDE8FE834FF027
:1080700000484FF48C7967691DE000BFB7FA87F0BC
:1080800028FA00F109EB80058F43284609F084FBAC
:1080900088B1284609F088FBA5F58C75E8088DF8AD
:1080A000040045F38000401C8DF800608DF8050049
:1080B000216868468847002FE0D1D6E7007000406D
:1080C000A037002000F008BC70B50E46144900EB44
:1080D000400001EBC0051446E86A183520B10128BC
:1080E0000FD0022805D113E0284600F029FCA04259
:1080F00001D2002411E022463146284600F058FC07
:108100000BE0284600F01CFCA042F4D20446F2E743
:108110003146284600F01FFC0446204670BD000092
:108120008C4000200149024812F04ABC4037002030
:108130000030004004480549401AC008032101EB03
:10814000004003A109F016B960DC0300A0DB0300C6
:1081500053544B383332785F4952515F416E795FE7
:1081600068616E646C6572000021024A084602F084
:108170006DB80000C182030010B51420B62110F0C4
:10818000BBF81120802110F0B7F80F20052110F066
:10819000B3F810200A2110F0AFF83420042110F0B9
:1081A000ABF83D20202110F0A7F83E20C02110F0B0
:1081B000A3F81920012110F09FF81A20402110F097
:1081C0009BF821200B2110F097F82020052110F0BA
:1081D00093F81720BDE81040402110F08DB800281A
:1081E0004FF0110001D0562100E0802110F084B83A
:1081F00008B5344810F034FD10F0FF0F27D10121ED
:10820000084610F009FB0121092010F005FB0121AF
:10821000022010F001FB0121032010F0FDFA0121E2
:10822000042010F0F9FA0121052010F0F5FA0121DF
:10823000062010F0F1FA0121072010F0EDFA0121DB
:10824000082010F0E9FA01210A2010F0E5FA10F0F8
:10825000DBFA02210A2010F0FBFD10F0D9FA1E21F2
:10826000032010F010FE01231E224621B42010F03E
:10827000BDFD0521062010F0F5FD012010F0E0FD08
:10828000502010F008FEFF208DF800006946002005
:1082900010F018F80C480D499DF80020401AC0084D
:1082A000032101EB00400AA109F068F89DF80000E5
:1082B000262806D1FFF760FF00F016F80120FFF72F
:1082C0008EFF08BD442A002060DC0300A0DB030011
:1082D00073746B383332785F6964203D20307825C1
:1082E0003032580A0000000008B509F025FE08B138
:1082F00001F016FE1048114A6946006800900320FC
:108300008DF801008DF80000002009F0AFFD08B1E4
:1083100001F006FE0121002009F058FD084A6946D7
:10832000052009F0A3FD08B101F0FAFD01210520A7
:1083300009F04CFD08BD000030C203003581020089
:10834000698102000FB430B5B3B005460C4610F099
:1083500097FA2840B0B110F08DFAA04212D801A9C6
:108360002046FFF789F939A800901AA8009A389991
:1083700000F054FB002000901AAA01A903A0054BAD
:108380001B68984733B030BC5DF814FB257320257B
:1083900073000000782A002012F09CB909F0DCBBC1
:1083A0002DE9F84304460D4616461F46DDF82080A9
:1083B0000020084908703B46324629462046CDF841
:1083C0000080FFF759FD00F007F80DF0A3FCBDE8B1
:1083D000F88300002C2B002030B51B4B1B785B1C56
:1083E000194C237023461B780D2B2CDD0D23237095
:1083F000002026E000210FE0431C03EB430404EBC4
:10840000C303124C23445B5C00EB400404EBC00448
:108410000E4D2C446354491C0A29EDDB00220DE06B
:10842000431C03EBC3030A4C04EBC3039B5C00EB4C
:10843000C004074D05EBC404A354521C482AEFDBCB
:10844000401C0D28D6DB30BD1B2B002028500020FF
:10845000C250002030B50246002027E01A4B53F8E6
:10846000203032F91040234400EB4004174D05EB57
:108470008404174D2D7834F915401B1B124C44F819
:10848000203032F8103000EB4004104D05EB84042E
:108490000F4D2D7824F815300B4B53F8203006245F
:1084A00093FBF4F31BB221F81030401C0328D5DBFA
:1084B00007480078401C064B1870184600780628BC
:1084C00001D10020187030BDE8560020B8560020B9
:1084D000692B002030B50246002027E01A4B53F8E4
:1084E000203032F91040234400EB8004174D05EB97
:1084F000C404174D2D7834F915401B1B124C44F859
:10850000203032F8103000EB8004104D05EBC4042D
:108510000F4D2D7824F815300B4B53F820301424D0
:1085200093FBF4F31BB221F81030401C0328D5DB79
:1085300007480078401C064B18701846007814282D
:1085400001D10020187030BDDC56002040560020BC
:10855000682B002030B50A46002130F91130134C49
:1085600024682344124C134D2D7834F915401B1BFD
:108570000E4C236030F811300D4C0E4D2D7824F840
:1085800015300A4C236803EBD374641024B222F82C
:108590001140084B1B785B1C064C237023461B784C
:1085A000042B01D10023237030BD0000742B002068
:1085B0006A2B0020722B0020F0B5A449A4484FF08C
:1085C00080540B68D4F830210078D4F83411551C4D
:1085D000C0F3031006D0944601270026BCF1060F15
:1085E00003D00AE003F0FF0CF6E7B4F82453DFF8F9
:1085F00064C2C5F30425CCF80050DDB2062D06D1C7
:10860000032804D1DFF854C2934DCCF87450551CA4
:1086100004D09446BCF1060F03D00AE003F0FF0C2F
:10862000F8E7D4F84452DFF838C2C5F34235CCF845
:108630000050DDB2062D08D1032806D1894DD5F8AA
:1086400000C02CF0807CC5F800C0551C04D09446B6
:10865000BCF1060F03D00BE003F0FF0CF8E74FF07E
:108660008045C5F80C61C5F810617D4D2D1F2E6049
:10867000DDB2062D08D1032806D1DFF8E4C10325B9
:108680000CF1640CCCF80050DDB2062D10D103289B
:108690000ED1DFF8D4C10525CCF80050724D7835E5
:1086A0002F60714D08352E600CF104063F253560B2
:1086B000551C04D016460D46062E03D05BE0DEB2F4
:1086C0000546F9E7ED1E012D55D9684D2D68684E18
:1086D0003560664D2D1D2D68361D3560634D08359E
:1086E0002D68361D3560614D0C352D68361D3560A1
:1086F0005E4D10352D68361D35605C4D14352D6886
:10870000361D3560594D18352D68594E2036356067
:10871000564D1C352D68361D3560544D20352D685D
:10872000361D3560514D24352D68361D35604F4D51
:1087300028352D68361D35604C4D2C352D68361D7D
:1087400035604A4D30352D68494E40363560474DCD
:1087500034352D68361D3560444D38352D68361D4D
:108760003560424D3C352D68361D35603F4D4035F6
:108770002D68361D3560551C03D01646062E02D0D6
:1087800007E0DEB2FAE7D4F858523A4E05F04F054A
:108790003560551C03D01346062B02D008E0DBB22F
:1087A000FAE735480368DB0702D06FF00103036086
:1087B000062A07D1C91E022904D93048016841F4AC
:1087C0008061016027487438016841F470010160DC
:1087D000BFF34F8FBFF36F8FD4E94C104FF01022CF
:1087E000062907D1C01E032804D9D2F808021C4963
:1087F0001C310860D2F80002002803DBD2F8040222
:1088000000281FDA01200AF03FF91521C2F80012F2
:108810001B480368002BFCD0C2F804120168002931
:10882000FCD000200AF030F9BFF34F8F0D48F0382C
:108830000168144A01F4E06111430160BFF34F8FF6
:1088400000BFFDE7114910480860F0BDE00F00F0DF
:10885000E80F00F0403501400DF0ADBA00C0074010
:108860003C050040FCED00E0105600400404001000
:1088700020C50040E40E0040000400403C170040CA
:1088800000E401400400FA050090D003602A0020B3
:1088900004220249024806F0AFBA00007C370020EB
:1088A0000080004004220249024806F0A5BA0000F8
:1088B000883700200090004004220249024806F058
:1088C0009BBA00009437002000A0004001480068D7
:1088D00000470000C827002010B5124C022020617C
:1088E000606111A0A06104F17800E0614FF40070B4
:1088F00020620020A06260620BA1A164E06204F526
:108900001E71E1641021A065C4E91410E06509A19D
:10891000E01DFDF747FE08A12046FDF743FE20209D
:10892000A07110BD8C4000205465726D696E616C41
:108930000000000052545400534547474552000080
:108940000269C1688A4203D88068401A104400E076
:10895000501A401E70472DE9F047C46817468946F3
:1089600006464FF000083069A04201D9051B02E01D
:10897000B168201A0D1AB0686D1E001BA84200D8FD
:108980000546BD4200D33D4670682A46204449460C
:10899000FDF7D0FDB0687F1B2C44A844A944A04239
:1089A00000D10024F460002FDDD14046BDE8F087FF
:1089B0002DE9F04104468846D4E90207C51BE16869
:1089C000606816460844B54206D94146FDF7B2FD37
:1089D000B819E060BDE8F0812A464146FDF7AAFDDE
:1089E000761B08EB050132466068FDF7A3FDE660E3
:1089F000F0E700000FB4084B10B504A902AA0398D1
:108A000000F096FD044602A9002001F014F920466A
:108A100010BC5DF814FB0000379C020037B514460B
:108A20000846064B6A46214600F082FD0446694628
:108A3000002001F000F920463EBD0000379C0200F6
:108A40004100080218BF04200A0E18BF40F00100C0
:108A50004FF07F4232EA010108BF40F002000128D6
:108A600008BF05207047002809DB00F01F02012124
:108A700091404009800000F1E020C0F8801270476A
:108A8000002809DB00F01F0201219140400980000D
:108A900000F1E020C0F800117047002809DB00F069
:108AA0001F02012191404009800000F1E020C0F840
:108AB000001270474907090E002804DB00F1E0208E
:108AC00080F80014704700F00F0000F1E02080F8FB
:108AD000141D704710EE101A08B5444A6846B2EBF0
:108AE000410F28D94FF0E640B0EB410F94BF002072
:108AF0004FF0FF3000900098002861DB60EE000A24
:108B000010F0010F45D010F0020FDFED391A9FED84
:108B1000391A00EEE11ADFED381A40EE811A21EE23
:108B2000A01AF0EE400A40EE010A08BFF1EE600A1A
:108B3000B0EE600A08BD314B21F0004293423CD9AF
:108B400011F0004FDFED2E0A20EE201ADFED2D0A86
:108B500019BF31EE601A71EE200A31EE201A71EE63
:108B6000600ABDEEE01A11EE100A9FED271A00F020
:108B7000030000EEC10A9FED251A009000EEC10A25
:108B80009FED231A00EEC10A9FED221A00EEC10AE2
:108B9000B1E79FED211A9FED210A10F0020F00EEC0
:108BA000810A9FED1F1A00EE801AB7EE000A00EE50
:108BB000810A18BFB1EE400A08BD00F065FA9AE7D5
:108BC00010EE100A4000B0F17F4F3CBFB7EE000A34
:108BD00008BD07D14FF0010000F022FBBDE80840BE
:108BE00000F042BABDE8084000F03ABAB61F927EE3
:108BF000336D4C39DA82083CA0AA2ABE490E494698
:108C000083F9223F0000004B0000C93F00A0FD395E
:108C10000020A2331A61342CB93AB2BACA9F2A3D55
:108C2000DDFFFFBE2DED020B019820F0004001900A
:108C30009DED000B02B0704710B52DED020B2DED30
:108C4000088B84B09DED0C0B51EC100BFDF78EFFE3
:108C500041EC180B9DED0C0B53EC182B51EC100B49
:108C6000FDF74AFD41EC190B0D989FED290B10F013
:108C7000004F53EC102B51EC190B9FED21AB9FEDE6
:108C800022BB0ED0FDF76AFE0ED953EC1B2B51EC24
:108C9000190BFDF77BFE1CD214E000BF41EC180B52
:108CA00017E0FDF75BFE06D253EC1A2B51EC180BC4
:108CB000FDF722FDF2E753EC1B2B51EC190BFDF7EE
:108CC00065FE06D853EC1A2B51EC180BFDF773FC1C
:108CD000E4E78DED028B9DED0C0B18EE901A10EE73
:108CE000900A8DED000B61F31E0003909DED020BC9
:108CF00004B0BDEC088B02B010BD00000000000005
:108D0000000000000000F03F000000000000E03F15
:108D1000000000000000E0BF00B510EE101A2DEDBD
:108D2000028B81B0524A6846B2EB410F2ED94FF008
:108D3000E640B0EB410F94BF00204FF0FF300090B1
:108D40000098B0EE408A00286ADB10F0010F4BD08B
:108D500068EE080A9FED471A9FED470A00EE810A68
:108D60009FED461A10F0020F00EE801AB7EE000ACF
:108D700000EE810A02BF01B0BDEC028B00BD00BF56
:108D800001B0B1EE400ABDEC028B00BD3C4B21F0BE
:108D90000042934241D911F0004FDFED3A0A20EE34
:108DA000201ADFED390A19BF31EE601A71EE200A80
:108DB00031EE201A71EE600ABDEEE01A11EE100AD3
:108DC0009FED321A00F0030000EEC10A9FED301A49
:108DD000009000EEC10A9FED2F1A00EEC10A9FED30
:108DE0002E1A00EEC10AABE728EE080A9FED2B1AF7
:108DF000DFED2B0A10F0020F40EE410A9FED291A19
:108E000000EE201A61EE000AB0EE480A08EE200AD1
:108E1000B6D101B0BDEC028B00BD00F035F98FE793
:108E200018EE100A4000B0F17F4F0DD218EE100A74
:108E3000FFF706FE042808BF00F01EF9B0EE480A4E
:108E400001B0BDEC028B00BD09D1012000F0E8F9B2
:108E500001B0BDEC028B5DF804EB00F005B901B088
:108E6000B0EE480ABDEC028B5DF804EB00F0F8B8F8
:108E7000B61F927EB93AB2BACA9F2A3DDDFFFFBE45
:108E8000490E494683F9223F0000004B0000C93FCC
:108E900000A0FD390020A2331A61342C336D4C3907
:108EA000DA82083CA0AA2ABE10B52DED028BB1EEE5
:108EB000C08A18EE100A20F00040C0F1FF40C00F39
:108EC0000AD010EE100A20F00040C0F1FF40C00FA1
:108ED00004BF012000F0A4F9B0EE480ABDEC028BFB
:108EE00010BD000000B510EE101A2DED028B81B000
:108EF0004D4A6846B2EB410F3CD94FF0E640B0EB2B
:108F0000410F94BF00204FF0FF3000900098B0EE6A
:108F1000408A00285FDB28EE080ADFED440A9FED57
:108F2000441A00EE201ADFED430A40EE010A9FEDDD
:108F3000421A00EE201ADFED410A10F0010F40EE58
:108F4000010A9FED3F1A00EE201A61EE000AB0EE12
:108F5000480A08EE200A02BF01B0BDEC028B00BD3A
:108F6000BFEE001A01B0C1EE000ABDEC028BB0EEFC
:108F7000600A00BD334B21F00042934228D911F022
:108F8000004FDFED310A20EE201ADFED300A19BF65
:108F900031EE601A71EE200A31EE201A71EE600A8D
:108FA000BDEEE01A11EE100A9FED291A00F0030041
:108FB00000EEC10A9FED271A009000EEC10A9FED56
:108FC000261A00EEC10A9FED251A00EEC10A9DE7A0
:108FD00000F05AF89AE718EE100A4000B0F17F4FFF
:108FE0000DD218EE100AFFF72BFD042808BF00F081
:108FF00043F8B0EE480A01B0BDEC028B00BD09D1C8
:10900000012000F00DF901B0BDEC028B5DF804EB1E
:1090100000F02AB801B0B0EE480ABDEC028B5DF852
:1090200004EB00F01DB80000B61F927EBBE9223CA5
:109030000C6D063B8A76CE3CACB5593D35A1083E59
:1090400029AAAA3E490E494683F9223F0000004B57
:109050000000C93F00A0FD390020A2331A61342C62
:1090600030EE000A70470000DFED020A80EEA00A31
:1090700070470000000000009FED020A20EE000A89
:1090800070470000000000102DE9F0014FF07F4212
:10909000B2EB410F9FBF4FF0FF310160BDE8F0011F
:1090A00070474FF0004242EA0123C1F3C752783AB9
:1090B000551112F01F0C434CCCF120067C44C1F337
:1090C000C752A2F178024FEA621204EB820254F80E
:1090D000254008BFD2E9015612D0556804FA0CF4B5
:1090E00025FA06F73C43976805FA0CF527FA06F8C7
:1090F000D26807FA0CFCF24045EA08054CEA020681
:10910000A4FB034CA5FB0352A6FB03631D449D4235
:1091100034BF012600261319334416B1934202D9F5
:1091200003E0934201D2012200E00022624402F1F6
:10913000200C9206DC0C42EA443200EE102A5B035B
:10914000DFED210AF8EEC01A00EE103A4FEA9C1C3F
:1091500011F0004FB8EE400AC0F800C020EE201A0F
:1091600000EE105ADFED190AB8EE400A20EE200A90
:1091700071EE810A70EE800A10EE902A02F500620C
:109180006FF30B0200EE902A70EEE11A31EEC11A75
:10919000DFED101A30EE411A9FED0D0A20EE800A25
:1091A00001EE210A9FED0C1A00EE810A04BFBDE812
:1091B000F0017047CCF180510160BDE8F001B1EEE3
:1091C000400A704778320100000000360000802C11
:1091D00022AAFD29DB0FC92F0000C92F02E008C811
:1091E000121F08C1002AFAD170477047002001E021
:1091F00001C1121F002AFBD1704700000121202865
:1092000003DA81400548014003E0402802DA2038B3
:10921000814009B10120704700207047FC06FFBD66
:109220000149086070470000102C00202DE9F84328
:10923000804643F2020659B969460BF07DF8B04208
:1092400002D008B100F06CFE9DF80000800744D405
:10925000002140460BF07AF805003ED0112D3CD09D
:109260001F482049401AC708022000EB07440D2D73
:109270000AD00B2D1DD0B5421FD11B4920464246B6
:10928000BDE8F84308F07AB820464246174908F08E
:1092900075F81321404676DF00281ED008F0E4FC64
:1092A000024601B020464346BDE8F04310A108F055
:1092B0006CB8204642461C49E2E7284608F0D4FC38
:1092C0000246012000EB0740434618A108F05DF874
:1092D0002846BDE8F84300F023BEBDE8F88300004F
:1092E000D8DB0300A0DB03003CCD0300C8CC0300A7
:1092F00073645F626C655F6761705F646973636FFD
:109300006E6E65637428292072657475726E65646B
:10931000202573206F6E20636F6E6E5F68616E64D0
:109320006C652025642E000088CD030041737365B1
:109330007274696E672E20706D5F636F6E6E5F73FF
:10934000656375726528292072657475726E65642F
:10935000202573206F6E20636F6E6E5F68616E6490
:109360006C652025642E00002DE9FF5F82B000218E
:10937000DDE90430020DDDF840B0034318D044F6B7
:109380001050A2F2FF3242431514119801281FD049
:10939000A5EB0B00401C5FEA000A4FF000064E4FA1
:1093A000DFF83891B046504615D5CAF1000413E0F5
:1093B000119801244AA3012801D16FEA0B010298F8
:1093C000119AC0E90031C0E9024206B0BDE8F09F41
:1093D000CBF10000DFE704460021404A491842EB88
:1093E0000450CDE9001012E0E00707D032463B46BA
:1093F00040464946FDF786F98046894632463B4657
:1094000010461946FDF77EF906460F466410002CFB
:10941000EAD1DDE90401DDE90023BAF1000F06DA43
:10942000FDF770F942464B46FDF76CF905E0FDF794
:10943000DBF942464B46FDF7D7F904460E460022BB
:10944000284BFDF7A3FA03D84FF0FF30014607E0A1
:109450000022254B20463146FDF7ADF8FDF7CAFB4B
:10946000102409E0002C0ADB0A220023FCF7BCFFD1
:10947000039B30321A55641E50EA0102F2D1641C7B
:10948000039AC4F111031444119A012A03D0012252
:1094900008430DD10AE0084304D000204FF0110B1F
:1094A000119072E7A3EB0B056D1E0DE05B4504DD2B
:1094B0004FF0000205F1010504E003DA4FF000026D
:1094C000A5F10105002AECD002981199C0E90231FA
:1094D000C0E9004579E70000000014400000F03FBB
:1094E000300000000000F0430000E03F70B50E4D7A
:1094F0000E466A68002A16D000680C4C30B12178FC
:10950000C840C00702D0C8B2012190473068002887
:1095100009D02178C840C00705D06A68BDE870400E
:10952000C8B20021104770BD40290020F0BF0300E1
:109530002DE9FF4F95B09A46884606460025EEE194
:10954000252877D100242746F94A0121039400E019
:10955000044316F8013F203B01FA03F01042F7D113
:1095600030782A2811D06FF02F033078A0F1300224
:10957000092A16D8039A44F0020402EB820203EB94
:1095800042021044761C0390EFE758F8042B039234
:10959000002A03DA504244F40054039044F00204D9
:1095A000761C30782E2816D116F8010F44F00404EA
:1095B0002A280DD06FF02F023078A0F13003092B4C
:1095C00009D807EB870302EB4303C718761CF3E7C0
:1095D00058F8047B761C30786C280FD006DC4C28B9
:1095E00017D068280DD06A2814D104E0742810D050
:1095F0007A280FD10DE044F400140AE044F48014FA
:1096000001E044F440147278824202D104F58014DF
:10961000761C761C307866280BD013DC582877D05F
:1096200009DC002875D04528F6D04628F4D0472814
:109630001AD193E118E0632835D0642879D06528E1
:1096400012D18BE1702873D008DC6728F1D069282B
:109650006FD06E280DD06F2806D1ACE073282CD0C7
:10966000752874D0782853D05246179990476D1CAE
:1096700054E1C4F30250022809D003280DD0D8F8D1
:10968000001004280DD00D6008F1040846E1D8F858
:109690000010EA17C1E90052F6E7D8F800100D8073
:1096A000F2E70D70F0E718F8041B8DF800100020A9
:1096B0008DF80100EB46012003E058F804BB4FF0A1
:1096C000FF3061074FF0000102D40DE009F1010104
:1096D0008946B9420FDA8145F8DB1BF809100029E9
:1096E000F4D108E009F1010189468142FADB1BF857
:1096F00009100029F6D103985346A0EB090721462B
:109700003846179A00F080FA284400EB090507E074
:1097100044E008E10DE01BF8010B52461799904711
:10972000B9F10109F7D2534621463846179AF2E0BB
:1097300039E00A21C4F302524FF0000B0091022AD3
:1097400006D058F8040BC117032A09D00AE023E019
:1097500008F1070020F00702F2E80201904605E058
:1097600000B2C117042A01D140B2C117002906DA9C
:109770000A460021404261EB02012D2202E022054F
:1097800004D52B228DF80420012203E0E20701D04A
:109790002022F7E7914657E00A2100E010214FF020
:1097A000000B00910BE010214FF0000B44F004047B
:1097B0000827009103E008204FF0000B0090C4F34D
:1097C0000252022A05D058F8040B0021032A08D0BF
:1097D00008E008F1070020F00702F2E802019046D5
:1097E00003E080B2042A00D1C0B24FF00009220782
:1097F0002AD53278702A07D0DDF800C08CF0100C22
:109800005CEA0B0C05D00EE040228DF8042001220A
:1098100008E050EA010306D030238DF804308DF8BB
:10982000052002229146009B83F0080353EA0B03B4
:109830000AD150EA010201D1620705D530228DF824
:1098400004204FF001097F1E3278582A04D039A233
:109850000C920CAA02920BE03BA2F9E75B46009A3D
:10986000FCF7C2FD0C9B9B5C029A521E0292137085
:1098700050EA0102F2D1029804A9081A00F1200B63
:10988000600702D524F4803400E001275F4502DD43
:10989000A7EB0B0000E0002000EB0B010090039809
:1098A0004944401A0390E00306D453462146179AD0
:1098B000039800F0A9F90544002706E001A85246E4
:1098C000C05D179990476D1C7F1C4F45F6DBE00388
:1098D0000CD553462146179A039800F095F9054494
:1098E00004E030205246179990476D1C0099481E9D
:1098F00000900029F5DC08E00298029952460078B1
:10990000491C0291179990476D1CBBF10001ABF106
:10991000010BF1DC5BE100F065F90544761C307861
:1099200000287FF40DAE19B02846BDE8F08F000086
:109930000928010030313233343536373839616225
:1099400063646566000000003031323334353637E9
:10995000383941424344454600000000600700D4C6
:10996000062708F1070020F00700F0E802238046F0
:1099700003F0004C5FEA0C0001D097A009E020053D
:1099800001D596A005E0E00701D095A001E0AFF277
:109990004C001390307823F0004365280CD006DC8F
:1099A000452809D046281DD047287FD13BE06628AE
:1099B00018D067287AD136E00021112F01DB112061
:1099C00000E0781CCDE9000104A90CA8FFF7CCFC4D
:1099D000DDE90D010C9A4FF0000B07F1010910921F
:1099E00000914EE04FF000400097CDE9011004A92E
:1099F0000CA8FFF7B9FCDDE90D020C9B0F994FF0A5
:109A0000000B91461093009211B9791C00EB0109EB
:109A1000B7EB090003D4C0F1FF3B07F10109A9EB43
:109A20000700019042E0012F00DA01270021112FE9
:109A300001DD112000E03846CDE9000104A90CA8A1
:109A4000FFF792FCDDE90D010C9A00914FF0000B3D
:109A5000B946109221070FD4009A4A4503DA91467D
:109A600001E0A9F10109B9F1010F05DD109AA9F191
:109A70000101515C3029F4D0B84202DA10F1040F30
:109A800003DA0121CDE9011010E0002803DC834452
:109A9000A9EB000102E0411C494500DD8946A0EB2D
:109AA0000B00401C01904FF000400290200705D4AD
:109AB0000198484502DB4FF0FF30019000208DF8FF
:109AC0004B0002980DF14B07B0F1004F25D002205A
:109AD0000C902B200D90029800280CDA4042029046
:109AE0002D200D9007E00A210298FCF783FF30310A
:109AF000029007F8011D0C99481E0C900029F2DC19
:109B000002980028EFD1791E0D980870307800F087
:109B1000200040F0450007F8020D11A8C01BC01D31
:109B200002901398007800B1012000EB0901019820
:109B300001EBE071029801440398401A401E039023
:109B4000E00306D453462146179A039800F05CF8C8
:109B500005441398007818B15246179990476D1C28
:109B6000E00323D553462146179A039800F04CF89A
:109B700005441BE0BBF1000F07DB0098584504DDEE
:109B80001098179910F80B0001E0179930205246F1
:109B9000904701980BF1010B401E05F10105019062
:109BA00004D12E205246179990476D1CB9F100013F
:109BB000A9F10109DEDC05E017F8010B52461799FF
:109BC00090476D1C0299481E02900029F4DC534610
:109BD0002146179A03989EE62D0000002B000000F6
:109BE000200000002DE9F041044600251E461746DE
:109BF000880404D405E039462020B0476D1C641E5B
:109C0000F9D52846BDE8F0812DE9F041044600254C
:109C10001E469046C80301D5302700E0202788045F
:109C200004D505E041463846B0476D1C641EF9D5A1
:109C30002846BDE8F0810A68531C0B60107070471D
:109C400010B560B159B102780B785208B2EB530FDE
:109C500005D10622401C491CFCF797FC08B10020E6
:109C600010BD012010BD800701D0002070470120E9
:109C70007047C3688B4206D811440069491E81426F
:109C800001D8012070470020704790F82400012877
:109C900001D01F207047EE20704710B5012202212D
:109CA000002002F0DBF808B1072810D107220221BA
:109CB000012002F0D3F808B1072808D100210A22B8
:109CC000084602F0CBF808B1072800D1002010BDEB
:109CD00010B518B1BDE8104003F03EBA03210548A5
:109CE00001F00EF9002803D0BDE8104000F018B9CB
:109CF00010BD0000F02C002070B58CB015460E464B
:109D000000236C46C3F10F01415CE1545B1C102B36
:109D1000F8D30D2104F11000FCF725FC0020C0F160
:109D20000F02315C2244401C11740328F7D36846AB
:109D300046DF0020C0F10F01214491F82010295482
:109D4000401C0328F6D30CB070BD00000149C9784F
:109D500001F0ACBA2527002010B5ACB007F0C2FE68
:109D600008B100F0DDF8002469460120009407F0F6
:109D70002FFD08B100F0D4F8684607F0C3FD08B124
:109D800000F0CEF800F064F800F0D6F8AC21684698
:109D9000FCF7E9FB02208DF8000001208DF802009D
:109DA00006218DF80310ADF810008DF87C002149D4
:109DB0004FF496700591229044F2506023901E4813
:109DC000299069461D4800F0E6FF08B100F0A8F8A8
:109DD00001211A4800F0DCFF194800906946194833
:109DE00006F03DFB08B100F09BF800F0A7FB00F087
:109DF00047F81C216846FCF7B6FB4FF4A030CDE9CC
:109E000000404FF4F020029003208DF80C000E4823
:109E100005900E480690ADF80E408DF8104068464B
:109E200001F086F908B100F07BF82CB0BDE81040D5
:109E300000F092BAD2260020412D0300F02C002021
:109E40004917030024310020512D03009FCF020049
:109E50001CB568466DDF08B100F062F89DF801009E
:109E600011308DF8010068466CDF002801D000F049
:109E700057F81CBD0146014801F009B8F02C00203C
:109E800008B505480090684601F0D2FA002801D0D4
:109E900000F046F808BD0000B1B6020010B572B679
:109EA00007F020FB07F04CF90028FBD111481249BC
:109EB000401AC408012000EB044010A107F05AFA30
:109EC00011480068C00700D000BE022000EB04402B
:109ED0000EA107F04FFABFF34F8F0B48E43801682B
:109EE0000E4A01F4E06111430160BFF34F8F00BFE0
:109EF000FDE7000060DC0300A0DB03004661746145
:109F00006C206572726F7200F0ED00E0537973742B
:109F1000656D207265736574000000000400FA0529
:109F20000EB500210091CDE901106A4644F201000E
:109F3000FFF7B4FF0EBD000010B503F035FE0021A1
:109F4000044806F0C8F9002803D0BDE81040FFF728
:109F5000E7BF10BD3031002070B5002411B18A0771
:109F6000254601D0072070BD094A0B46516010708C
:109F700000EB40005570C10018469560FCF7F3FAFD
:109F800008F014F810B907F0D7FF0446204670BD5A
:109F90004828002070B50C46054603F0DBF90600A2
:109FA00013D10B4905EB45002246496801EBC0057A
:109FB0000121002006F0A6FF04200023E15CEA5CFA
:109FC0001140E1545B1C8342F8D3304670BD000061
:109FD0004828002070B50B4D00EB400400216A6852
:109FE00002EBC402127D0AB1084670BD012111F0D6
:109FF00091F90028F9D16A68012102EBC4021175B8
:10A0000070BD0000482800202DE9FC41254C804609
:10A010001F46606815460E4630B160782178884248
:10A0200004D30420BDE8FC810820FBE704236A4632
:10A030002946304606F044F96078626800EB40003B
:10A0400002EBC000002101750761009901603168D1
:10A05000416029688160144820260025006801902D
:10A060006946284606F01AF988B10E492846083193
:10A0700006F014F958B90D4A01A9284607F0F6FE72
:10A080000028CFD107492846083106F00FF96D1C8A
:10A09000B542E5D3607888F80000401C607000206D
:10A0A000C0E700004828002040BD0300A9E10200ED
:10A0B00010B54FF48041002007F0E8F908B1FFF730
:10A0C0002FFF07F023F80A210F4A084600F02EF967
:10A0D00008B1FFF725FF00F055F908B1FFF720FFA1
:10A0E00007F0DEFA08B1FFF71BFFFFF735FE00F0BF
:10A0F000CDF9FEF77DF800F009F801F085FEBDE826
:10A10000104000F01BB80000282C002010B50BF008
:10A11000DDFA0BF03DFA08480BF09EFA022106200A
:10A120000BF078FA012009F06DFB002803D0BDE8A0
:10A13000104000F0BFBC10BDD15103000EB5134A52
:10A1400007CA8DE8070011481149143808F080F853
:10A1500008B1FFF7E5FE6946002008F023F808B1D2
:10A16000FFF7DEFE01210B4807F0CAFF08B1FFF739
:10A17000D7FE08480121801C07F0C2FF08B1FFF795
:10A18000CFFE00F017F800F007F80EBD24C2030060
:10A19000896403003A2A0020054810B5407807F08A
:10A1A0006FFF002803D0BDE81040FFF7B9BE10BD17
:10A1B000382A00203EB506F009FA08B1FFF7B0FED4
:10A1C0001E491F4AD1E90301CDE9010103208DF8A1
:10A1D00006001A4801A9001D08F0D4F808B1FFF7DD
:10A1E0009FFE164C241D2068D0F810050021C2B235
:10A1F0001448FCF739F9024600200146009001237B
:10A20000204608F0A9F8204608F098F8246804F5DC
:10A21000A07408F067F805460B4807F0D9FE08B1AE
:10A22000FFF77EFE08482A46401E2146407807F088
:10A2300005FF002801D0FFF773FE3EBD10C20300EA
:10A24000B5A6030000A86100392A00202DE9F84FC7
:10A25000254C8146924660880E46814241D80027AF
:10A260004FF6FF788DF80070684600F089F9227883
:10A270006078A188884201DA401C00E00020C0B26A
:10A28000904204D19DF8000000F09EF927E0657827
:10A290006078884201DA401C00E0002060709DF880
:10A2A000000000F091F9454519D0A068B9F1000F00
:10A2B00040F835A00DD066B16188E068324605FBF4
:10A2C00001004946FCF736F9A06800EBC50086801E
:10A2D00002E000EBC50087800020BDE8F88F042075
:10A2E000FBE70920F9E70000E427002010B50E4C39
:10A2F00003E0401C00E0002020702078617881425B
:10A3000010D022786188E068A36802FB010003EBAB
:10A31000C20153F83220898890472078A18888426A
:10A32000E9DAE6E710BD0000E427002030B5CB00F5
:10A3300008339DB293074FF0000401D0072030BDD1
:10A34000044B9A602A44DA605C701C7058809980D3
:10A35000002030BDE427002009F0E8BE084B9B78C0
:10A3600023B12AB120B10068037C1BB108207047DB
:10A3700007207047002303744174426118467047F8
:10A38000D037002010B50BF0F3FF10490020104C1F
:10A39000087048700B228A70606020706070142012
:10A3A000FEF761FB06211420FEF784FB1420FEF764
:10A3B00067FB08490120086006211120FEF77AFB9F
:10A3C0000448001F0068A060002010BDD0370020A6
:10A3D000F4270020081501402DE9FC47DFF88090A4
:10A3E00099F8023083B378B31E4C4B1FA34202D3BB
:10A3F0000720BDE8FC87436933B3437C012B26D09B
:10A40000002704460025884616468DF80050684609
:10A4100000F0B6F801A810F0B5FFD0B1012101702D
:10A42000114944600968C0E90218C0E904769DF842
:10A43000040089F801009DF8000000F0C5F8142020
:10A44000FEF72BFB2846D4E7FFE70820D1E70F46AD
:10A45000D7E704259DF8000000F0B6F8F2E7000009
:10A46000D0370020FBFFFF00041501400649897822
:10A4700039B130B1416921B100210174022110F0DC
:10A48000B7B9082070470000D03700201FB5094B2E
:10A490000FCB8DE80F00074800231A466946103895
:10A4A00006F0A0F808B1FFF73BFD02480C3807F0B2
:10A4B000C9FF1FBD44B9030070B51749174A0546C7
:10A4C000891AC9080078032202EB014458B1144DDF
:10A4D00002281AD0032805D1204612A106F04AFF0F
:10A4E0000020687070BD002606E0A8680FA1825D9C
:10A4F000204606F043FF761CA889B042F5DC81B205
:10A50000A868BDE87040FCF7F7BE204609A106F038
:10A5100031FF0120E5E7000060DC0300A0DB030061
:10A520007029002053544F50504544003078253056
:10A530003278200045414E424C4500001CB5084988
:10A540000120887607480090074801906946044832
:10A5500001F09AFB002801D0FFF7E2FC1CBD0000CF
:10A56000A44A0020B9A402006DA5020003480268B5
:10A57000002A02D0017A406810477047984A0020AC
:10A5800030B5EFF3108172B60D4A9468012324B1FF
:10A590000370002900D162B630BD93604FF0E02314
:10A5A000D3F88051074C25401560C3F88041D3F89B
:10A5B000844154605A17C3F8842100220270E8E7EE
:10A5C000DC380020FC06FFBD0B498A68002A11D048
:10A5D00000280FD1EFF3108072B60B684FF0E02225
:10A5E000C2F800314B68C2F8043100228A600028AA
:10A5F00000D162B670470000DC3800202DE9F04140
:10A60000064608680C46411C4FF0A0474FF0010574
:10A6100006D005FA00F1C7F80815206806F00FFC0F
:10A620006068411C02D0002106F0EEFB3168A06991
:10A63000C1F82405607D217D32680843C2F86C05AD
:10A64000D4E900123068C0F80C15C0F81425207D3C
:10A65000012815D1A068411C02D0002106F0D4FBCE
:10A66000E068411C05D08540C7F80855E06806F051
:10A67000E6FBD4E902123068C0F80825C0F81015CE
:10A68000BDE8F0812DE9F041064608680C46411C02
:10A690004FF0A0474FF0010506D005FA00F1C7F8CA
:10A6A0000815206806F0D5FB6068411C02D0002127
:10A6B00006F0B3FB3168A069C1F82405607D227DF6
:10A6C00031681043C1F86C05D4E900123068C0F855
:10A6D0001425C0F80C15207D012815D1A068411C57
:10A6E00002D0002106F099FBE068411C05D08540AE
:10A6F000C7F80855E06806F0ACFBD4E902123068F0
:10A70000C0F80825C0F81015BDE8F08104F01ABDA6
:10A71000400C01D000207047012070472DE9F74F11
:10A72000814C82B004F11807207820B1022804D0AF
:10A7300001280CD00DE022700BE0012A09D1B88865
:10A74000012806D1029800682061012014E0022A45
:10A7500011D0DFF8D4A14FF00009DFF8D0B1ADF887
:10A7600000900AF10C0A2078022809D0002804D0B1
:10A7700002980568C3E00220607005B0BDE8F08F64
:10A780009AF8031050460129F7D102889AF802007E
:10A79000012825D00023644821F00F01203041F02A
:10A7A0001001DB43AB2563F34511057021F0C001B7
:10A7B0004170A0F80290A0F8049051BAC18008211D
:10A7C000ADF80010C846694601F006FB50B11328E9
:10A7D00016D084F8009084F801908AF80390CCE7B2
:10A7E0000123D8E784F800808AF803806078012884
:10A7F000C3D12569002DC0D0207084F801807EE08F
:10A80000022332465846514663F307020CF0A2FA7F
:10A81000B3E7454808212830ADF8001001210EE0CB
:10A8200068890028A9D07D2801D97D2100E0014652
:10A83000ADF800102989081A2968084402218846C1
:10A84000694601F0C9FAC0B113285CD0C84668F364
:10A8500007064946324608460CF07CFA84F8008028
:10A86000696819B185F80E80002088476078022851
:10A8700083D1207084F8018075E75FEA08003ED03C
:10A88000012805D002280DD0B8F1030F37D12EE0F2
:10A89000B888012833D1A7F80490C4F82890C4F8E8
:10A8A0002C902CE06889BDF80010401A0004000CC0
:10A8B000688124D169F307064946324608460CF000
:10A8C00049FA1B4884F8009065612A464FF400312C
:10A8D0000068FFF781FD6078022810D19AF8030024
:10A8E00001280CD10220207084F801903BE79AF8EF
:10A8F0000300012803D184F800908AF80390B888F7
:10A9000001288DD185E7012332465846294663F355
:10A9100007020CF01FFA06482A464FF4003100687F
:10A92000FFF75AFD29E7000074290020E5640300C1
:10A9300004C003002DE9F047814605884A484FF0DE
:10A9400000088AB001784246284600F0C7FC99F812
:10A950000500400701D4002176E005F58077B8B204
:10A9600005AB0122072109F00FF904003F48404AD6
:10A970004FF00101A0EB02004FEAD00001EB0046CE
:10A980000AD0204607F070F9024630462B46394976
:10A9900006F0FBFC214629E0284604F075F84FF646
:10A9A000FF71044688422BD18A46069803F0D6FFF1
:10A9B0000446504510D00146284604F045F8284684
:10A9C000FFF7C4F9E0B928460BF0EEFF2846FFF781
:10A9D000BDF90028BFD013E009F0ACFA0446504599
:10A9E00008D1304624A106F0C5FC042128460CF00D
:10A9F00009F8B0E70146284604F026F84FF00108B0
:10AA0000B8B22246072109F037F907001BD0862F7C
:10AA10001ED007F029F9024630462B462349009400
:10AA200006F0BBFC394628460BF0ECFF00214846F7
:10AA300008F0A2FFB8F1000F02D0204604F00EF893
:10AA40000AB0BDE8F0870121484608F095FFF7E716
:10AA5000142217496846FBF76DFDADF802506846B1
:10AA600002F068FDEFE7000025270020D0DB03009F
:10AA7000A0DB0300C0CA0300436F756C64206E6FD7
:10AA80007420616C6C6F63617465206E65772070F3
:10AA90006565725F696420666F7220696E636F6DB1
:10AAA000696E6720626F6E642E000000DCCB0300CD
:10AAB00044BA030010B50121054808F050FD0FF01D
:10AAC000F5FE03480121103800F8A81F017710BDDA
:10AAD000E84300200EB50A4904220A7000224A7099
:10AAE0008870CA70012008710648007848710620F5
:10AAF000CDE90012ADF808006846FCF751FD0EBD27
:10AB0000C84A0020382A00200EB50A4904220A70DB
:10AB100000224A708870CA700120087106480078C7
:10AB200048710620CDE90012ADF808006846FCF730
:10AB300037FD0EBDC84A0020382A002010B5074C4A
:10AB400008E000BF11F8013B4340DBB234F813309A
:10AB500083EA1020521E92B2F4D210BD10C003003E
:10AB600070B51500044609D00020286034B1206873
:10AB700020B1A079800703D0072070BD0E2070BDE2
:10AB8000084600F009FBC0B2142804D021798142A4
:10AB900003D8042070BD052070BDE288216800FB49
:10ABA00002102860002070BD2DE9FC4700251788A1
:10ABB0000646158090F82D001446894630B13A4675
:10ABC0002146484600F0B0FB051E09D1B0784FF091
:10ABD0000C0A18B32088C846001DB84202D9504656
:10ABE000BDE8FC87684679DF0028F9D12088032179
:10ABF00008F8001020881921401C80B2208008F835
:10AC000000102088401C80B2208000EB0801BDF8B5
:10AC1000000010F0B6FA218808442080F078022263
:10AC2000C8B1218896F9033001F1030C4846BC45B0
:10AC3000D5D8425421884FF0010C491C89B221809B
:10AC400000F801C02188491C89B2218009F801302F
:10AC50002088401C20807068B8B1218890F90030AD
:10AC600001F1030C4846BC45B9D8425421880A2258
:10AC7000491C89B2218042542188491C89B2218013
:10AC800009F801302088401C2080308950B1CDE97E
:10AC900000474B460622022106F1080010F08AFB0D
:10ACA000051E9DD1308A50B1CDE900474B460722A1
:10ACB000032106F1100010F07DFB051E90D1308BB2
:10ACC00050B1CDE900474B461522142106F118007A
:10ACD00010F070FB051E83D1306A30B13B4622462E
:10ACE000494602F018F9051EDBD1706A30B13B46C7
:10ACF0002246494604F04AFD051ED2D196F82C00A2
:10AD000038B13B462246494630460BF0DFFF051E70
:10AD1000C7D1307838B13B4622464946304605F027
:10AD200003F9051EBDD128465AE718B50446002090
:10AD3000ADF8000013466A46204600F006F80028E9
:10AD400002D0BDF80000204418BD70B5E0B1DAB102
:10AD5000002402E0045D2C44A4B2651C8D4206D29E
:10AD60001688A642F6D8061976789E42F2D18C4211
:10AD70000AD2A31C005D9BB200B1401E0004000C6F
:10AD800002D01C188C4201D9002070BD138070BD08
:10AD900080F8301070472DE9F0410D00044606D0D0
:10ADA0002CB195F87A000026012803D006E00E2089
:10ADB000BDE8F08195F89800012829D0D5F8A000C9
:10ADC000042825D0D5F89C00042821D04FF0010894
:10ADD000A6702C2205F17801201DFBF7ABFB84F84F
:10ADE0003060D5F8A4006063D5F8A800A0634FF6E2
:10ADF000FF70A4F8240404F58260C4F82004C4F8A9
:10AE00002664A4F82A6484F82C64207810B104E045
:10AE10000720CDE7FF2084F8540004F155072046B1
:10AE2000C4F81074FEF731FFA4F8140404F21442BD
:10AE300039462846FFF7B8FE0028B9D104F2312080
:10AE4000C4F818042046FEF720FFA4F81C0404F2FE
:10AE50001C4205F13C00D4F81814FFF7A5FE0028A9
:10AE6000A6D184F85180208BA4F8480084F83C8057
:10AE7000266484F85060606900216064454604F1EE
:10AE80003C02781E72DF002892D1257090E72C22B8
:10AE9000001DFBF74FBB10B50288102A1BD0112AEA
:10AEA00020D0262A1DD1007A0C46012801D0022884
:10AEB00017D1A0780521401CB0FBF1F201FB120173
:10AEC000204600F01DF800280BD0A16B002908D007
:10AED000BDE810400847C27B012A02D18088A1F852
:10AEE000240410BD0C46002184F82E148088B4F888
:10AEF00024148842F5D120790028F2D10121DFE71E
:10AF00002DE9F05F044600780F4698B1A770002540
:10AF1000C4F82654A4F82A5484F82C54A0790126A5
:10AF200008B1012F09D0E07980B1012F05D0022F9F
:10AF300003D00BE00820BDE8F09F616B21B184F8DD
:10AF40002D640820884701E084F82D5404F227413D
:10AF500000200A5C0AB1304603E0401C0628F8D302
:10AF600000204FF002084FF0030B012F06D0022FF4
:10AF70000CD0032F0FD0042F15D110E0A17929B1E7
:10AF800094F8241011B908B130460DE0E17911B1FF
:10AF900008B1404608E0207A08B1584604E0607ADB
:10AFA00008B1042000E02846A070616B41B103287D
:10AFB00001D0042804D1607910B194F82E0498B11E
:10AFC00084F82F5404F13C0018210746FBF7CBFA14
:10AFD00084F83C6004F12C0009F0DEF858B194F8D4
:10AFE0002C0084F8510008E084F8305484F82F6471
:10AFF00007208847E6E784F8516094F8240058B1A8
:10B0000004F1280009F0C8F820B194F8280084F869
:10B01000520001E084F8526084F85050A27804F2A3
:10B02000264104F582694FF0060A052A64D2DFE85A
:10B0300002F07C030F22420084F83160C4F82054EF
:10B04000C4E9101584F83C808020A4F8480055E03D
:10B0500084F8318094F82420384612B10722027017
:10B0600001E080F800B0228A8281C4F82054416057
:10B07000E168B96042E06069B860208BB88194F8FB
:10B0800024003D460028204602D084F83CA001E080
:10B0900084F83C6010F030F950B185F81480042138
:10B0A000204602F010FD38BB052184F8311021E064
:10B0B00084F831B01EE0E069B860208CB88194F863
:10B0C00024003D460028204602D084F83CA001E040
:10B0D00084F83C6010F010F948B185F81480042120
:10B0E000204602F0F0FC38B984F831A002E00420D8
:10B0F00084F83100C4F82094A07878B13A4604F17D
:10B100005400D4F8201472DF00287FF414AF94F8B0
:10B11000301094F8540073DF0028F6D1616B11B140
:10B1200094F831008847002005E784F83150F5E7AE
:10B1300070B5040012D001461C221448FBF7FAF93E
:10B140001248134D0560206850B17ADF002806D1FF
:10B150002068016829604068686005E00E2070BDC5
:10B160000B487BDF0028FAD108484FF6FF711438EE
:10B17000084A20F8041B0549343901600021FFF713
:10B18000EDF80028EBD0032070BD00000433002050
:10B19000E026002091B2030010B5044600F0BAF892
:10B1A00008B1204610BD142010BD000010B50446A3
:10B1B00000F0B0F8002805D02146BDE81040024854
:10B1C00004F0C8BF10BD0000303300200346034820
:10B1D00080680A46194602F0A3BC00002033002014
:10B1E00070B515460E46044610F0B4F8002809D094
:10B1F000054800EB8400C0692A463146BDE870402E
:10B2000002F08EBC70BD00002033002010B5044653
:10B2100000F080F8002805D02146BDE81040024823
:10B2200004F098BF10BD00003833002010B504466C
:10B2300000F070F8002805D02146BDE81040024813
:10B2400004F088BF10BD00003433002070B50546FF
:10B25000002400F05FF838B12946044804F07AFF72
:10B2600008B1022400E00124204670BD2C330020E8
:10B2700070B50546002400F04DF838B12946044861
:10B2800004F068FF08B1022400E00124204670BDEC
:10B290002833002010B51821034804F036FF182881
:10B2A00000D0C0B210BD00002033002070B50546AC
:10B2B0000C46084610F04EF860B1284600F02AF817
:10B2C00040B10548294600EB8400BDE870401C30C1
:10B2D00004F040BF002070BD2033002070B505464B
:10B2E00016460C46084610F035F800280ED02846C1
:10B2F00000F010F8002809D00548324600EB840021
:10B300002946BDE870401C3002F0D8BB70BD00007B
:10B3100020330020142801D3002070470146014843
:10B3200004F018BF243300207CB5054608880C467D
:10B330000930904201D90C207CBD68466DDF0028A1
:10B34000FAD121880820685420881B21401C80B233
:10B35000208029542088401C80B220802844DDF8B9
:10B3600001100160BDF8051081802088801D80B229
:10B3700020809DF80010490800D001212954208820
:10B38000401C208000207CBD18B1034908600020CB
:10B3900070470E2070470000DC28002010B54FF0E9
:10B3A000FF3100203DDF00280BD1B1213CDF002818
:10B3B00007D10448416901208847022006F0A6F918
:10B3C000002010BD14430020044810B500684169F6
:10B3D00000208847BDE81040FFF7E0BFDC280020D0
:10B3E00010B588B0044620216846FBF7BCF803205E
:10B3F000ADF8000020788DF802009DF80D001721AF
:10B4000040F028008DF80D0001208DF810008DF817
:10B410001300ADF804108DF812008DF80C008DF8B3
:10B4200011006088A21D694600F022FE08B010BD20
:10B4300010B5184C86B01ECC8DE81E0048B1164CD5
:10B440004FF6FF71A180006800216061217618B17C
:10B4500004E00E2006B010BD104860610E48FFF7F2
:10B4600093FF0028F6D101208DF812004FF65960A5
:10B47000ADF81000A21C04A90120A8DF0028E9D122
:10B480000549684662DF0028E4D10348FFF7A8FFBA
:10B49000E0E700004CBE030014430020B9D20200D4
:10B4A00010B5002823D003881C4C102B17D0214640
:10B4B000112B8A8815D0C988512B19D0532B16D13E
:10B4C000C088884213D1207E002810D0FFF77CFF6F
:10B4D00000280CD06169BDE8104002200847808830
:10B4E00004E08088824202D14FF6FF70A08010BD38
:10B4F00083889342FBD110F8062F022AF7D14288A5
:10B500008A42F4D1017A0429F1D00629EFD0052925
:10B51000EDD0BDE81040801C07F0B2BC1443002001
:10B520002DE9F0410546007B042601272E4C012819
:10B5300011D002282CD00226287B314600F08EF84C
:10B5400018B12068416903208847206841690220BA
:10B55000BDE8F041084720684FF00008417E49B13E
:10B560000621012000F07AF800283BD020684169CC
:10B570000320EDE707760121084600F06FF8002868
:10B5800030D02268112882F81880D5D10626D3E75A
:10B590006A7B142A22D80AB3DFF8508005F10E0125
:10B5A00008F10400FAF7C6FF697BC8F81810216893
:10B5B0004046497E0029BFD1A0F10C010A68011F55
:10B5C000904768B10F28B7D109480A49401AC00806
:10B5D00007EB0040084905F0CDFEADE70526ABE7D7
:10B5E00020684776BDE8F081DC2800203C4300203D
:10B5F00060DC0300A0DB03002CD8030070B5154904
:10B6000000250A68002A24D04A68002A21D008317F
:10B61000904708281DD0104C0028206845760ED091
:10B620000621022000F01AF818B1206841690320B1
:10B630008847206841690220BDE870400847012121
:10B64000022000F00BF8002803D020684169032095
:10B65000F2E770BD30430020DC28002086B00323D1
:10B66000ADF8003020238DF814308DF8150000223D
:10B670000E48019202928DF81610C188ADF80410A0
:10B6800002218DF8061005A90491ADF80820CDF827
:10B690000CD0808801A9AEDF002804D1BDF80010CD
:10B6A000032900D00C2006B070470000144300208E
:10B6B00030B52349234B01250322C91AC9088BB091
:10B6C00002EB014478B101282DD01D4A1946511AC8
:10B6D000C908012202EB0142022827D003281046A4
:10B6E00027D019A126E0204621A105F043FE684697
:10B6F0002C21FAF738FF4FF49670049044F2506012
:10B7000005908DF804508DF800506846FEF7B2FBA6
:10B7100000212348FFF75AFD0246204621A105F0EB
:10B720002DFE0BB030BD204624A103E010462CA115
:10B7300000E03AA10BB0BDE8304005F01BBE0000B0
:10B7400060DC0300A0DB0300556E6B6E6F776E202C
:10B750006576656E742066726F6D20626C655F64DD
:10B7600066755F627574746F6E6C6573732E00001E
:10B7700044657669636520697320707265706172D3
:10B78000696E6720746F20656E74657220626F6FDA
:10B79000746C6F61646572206D6F64652E000000CB
:10B7A00071D20200446973636F6E6E656374656481
:10B7B000202564206C696E6B732E000044657669E9
:10B7C00063652077696C6C20656E74657220626FAA
:10B7D0006F746C6F61646572206D6F64652E00001C
:10B7E0005265717565737420746F20656E7465722F
:10B7F00020626F6F746C6F61646572206D6F646539
:10B80000206661696C6564206173796E6368726F2C
:10B810006E656F75736C792E00000000526571754E
:10B8200065737420746F2073656E64206120726587
:10B8300073706F6E736520746F20636C69656E74CE
:10B84000206661696C65642E0000000038B50188CF
:10B850000446212927D015DC1C481D4A1D4DA0EBAC
:10B8600002004FEAD0004FF0030202EB0040102923
:10B8700010D0112905D118A105F07CFD4FF6FF70FD
:10B88000288038BD3B2918D05629FAD18088132149
:10B8900076DF15E014A105F06DFDA188298015481B
:10B8A00004F0D2FD0CE000200090A08869468FDFF4
:10B8B0000028E6D0FEF734FB38BD8088132176DF00
:10B8C0000028F9D0BDE83840FEF72ABB60DC030051
:10B8D000A0DB0300D0260020446973636F6E6E65A1
:10B8E000637465642E000000436F6E6E656374655B
:10B8F000642E00002431002010B51A4C01886068C5
:10B9000010290ED011292BD1401E606028D1FEF7DE
:10B91000C4F9002824D02168002921D0BDE81040B6
:10B920000847D0B900210122084600F097FA08B173
:10B9300007280FD107220221012000F08FFA08B159
:10B94000072807D104220221002000F087FA20B145
:10B95000072802D0216801B188476068401C6060F8
:10B9600010BD0000D82600202DE9F04701883B4E8D
:10B9700040F2F3194FF6FF7510291BD011293ED064
:10B98000122954D0502946D1C188F289841D914290
:10B9900041D1618902293ED18688304603F020F9E1
:10B9A000050038D004F10C0000F06AF9A8B329466C
:10B9B00030464EE0C17B8788044601292BD1A8463A
:10B9C000284603F00DF9050017D02F8000202872BB
:10B9D000234843464A460168C5F80A104068C5F83E
:10B9E0000E0004F1100105F10A0003F04FFA68722D
:10B9F000F08900280FD129462AE0042013E080882E
:10BA000003F0EEF8040006D06068FEF72FFD08B1E1
:10BA10000AF0DCFF2580BDE8F087FFE76868FEF7E5
:10BA200025FD0028F7D0BDE8F0470AF0CFBF878892
:10BA30000646384603F0D4F80400ECD02B464A46BC
:10BA400006F1080104F10A0003F020FA60722146B1
:10BA50003846BDE8F04701F0A5BA000004330020E5
:10BA6000E02600202DE9F04F0446868801884248F0
:10BA700097B0834610290CD0112950D010301929C5
:10BA80006AD01A2974D1217A0C09042C4DD30122D1
:10BA90004CE0394D083DA868C0430B9069680BA87D
:10BAA00004F07CFB0B990CA801F016FA2C220CA9CF
:10BAB0006846FAF73FFD0027E946A84610E000BFB8
:10BAC00009EB47005FF00005B0F804A008EB850023
:10BAD0005146001D04F0FEFA6D1C1E2DF6D37F1C8E
