:020000040002F8
:1060000038D90020C5630200CD630200CF630200CF
:10601000D1630200D3630200D563020000000000D8
:10602000000000000000000000000000D763020034
:10603000D963020000000000DB630200DD630200A0
:10604000F5870200DF63020041D10200F9B20200CD
:10605000DF630200DF6302003576020051B1020007
:1060600005D1020019D102002DD10200F9AD0200C4
:10607000DF630200DF630200DF630200DF63020010
:10608000DF63020009AE0200DF630200DF6302008B
:106090006DB50200DF63020071B50200DF6302002C
:1060A000DF630200DF630200DF630200DF630200E0
:1060B000DF630200DF630200000000000000000058
:1060C000DF630200DF630200DF630200DF630200C0
:1060D000DF630200DF630200DF63020000000000F4
:1060E00000000000000000000000000000000000B0
:1060F00000000000000000000000000000000000A0
:10610000000000000000000000000000000000008F
:10611000000000000000000000000000000000007F
:10612000000000000000000000000000000000006F
:10613000000000000000000000000000000000005F
:10614000000000000000000000000000000000004F
:10615000000000000000000000000000000000003F
:10616000000000000000000000000000000000002F
:10617000000000000000000000000000000000001F
:10618000000000000000000000000000000000000F
:1061900000000000000000000000000000000000FF
:1061A00000000000000000000000000000000000EF
:1061B00000000000000000000000000000000000DF
:1061C00000000000000000000000000000000000CF
:1061D00000000000000000000000000000000000BF
:1061E00000000000000000000000000000000000AF
:1061F000000000000000000000000000000000009F
:10620000DFF810D000F00EFD00480047AD4103005C
:10621000AFF3008038D9002030B4044654E8000FB2
:106220000D4644E80053002BF8D1156030BC704790
:1062300030B4044654E8000F40EA010544E8005336
:10624000002BF7D1156030BC704730B4044654E8D9
:10625000000F00EA010544E80053002BF7D1156058
:1062600030BC704730B4044654E8000F80EA0105A2
:1062700044E80053002BF7D1156030BC704730B4B0
:10628000044654E8000F00EB010544E80053002BDE
:10629000F7D1156030BC704730B4044654E8000FA5
:1062A000A0EB010544E80053002BF7D1156030BC8A
:1062B000704770B404464FF0000054E8006F0D685A
:1062C000AE4207BF44E80023012044E800630E60AB
:1062D000002B1CBF0020F0E770BC704730B40446B0
:1062E00054E8000F88422CBF451A054644E8005385
:1062F000002BF5D1156030BC7047000030B450E879
:10630000012F93B2C48923448489A34228BF1B1B55
:106310000489A34202BFBFF32F8F002007E0C3EA26
:10632000020340E80134002CE9D14FF001000A607B
:1063300030BC704750E8012FC2EA024240E8012118
:106340000029F7D1704730B450E8022F1FFAA2F3AA
:10635000C488A34202BFBFF32F8F00200DE0C48981
:1063600023448489A34228BF1B1BC2EA034340E89D
:106370000234002CE8D14FF001000A6030BC7047B5
:1063800050E8022FC2EA224240E802210029F7D158
:106390007047034653E8022FD988B2EB324F4FF0D3
:1063A000000017BF92B241EA014142EA014104E014
:1063B0005A68B2EB324F08BF012043E80212002AAC
:1063C000E8D170470648804706480047FEE7FEE7E9
:1063D000FEE7FEE7FEE7FEE7FEE7FEE7FEE7FEE795
:1063E0002DCE0200016202002DE9F05F054600207B
:1063F00092469B4688460646814640241BE0284636
:1064000041464746224600F02FF853465A46C01AE6
:10641000914110D311461846224600F016F82D1A65
:1064200067EB01084F4622460120002100F00DF8DD
:1064300017EB00094E41201EA4F10104DFDC4846A1
:1064400031462A464346BDE8F09F202A04DB203A25
:1064500000FA02F1002070479140C2F1200320FAB7
:1064600003F3194390407047202A04DB203A21FAB5
:1064700002F00021704721FA02F3D040C2F120025D
:10648000914008431946704700487047F43F0400A4
:106490002DE9FE43994615468846074601AC022978
:1064A00042D3002D40D000200290A8F101004FF00F
:1064B000FF36009022E000FB057201FB05701146DB
:1064C0004A469047002805DC54F82600304444F83A
:1064D000260013E060682A4600FB057154F8040C9E
:1064E00000FB057007E00B7890F800C001F801CBC5
:1064F00000F8013B521E002AF5D1764254F8040CF4
:1065000061688842D7DC4B462A463846FFF7C0FF11
:1065100054F8040C4B46A8EB0001401C00FB05702E
:106520002A46491EFFF7B4FFBDE8FE83002800DAC3
:106530004042704740EA01039B0703D009E008C9C5
:10654000121F08C0042AFAD203E011F8013B00F838
:10655000013B521EF9D27047D2B201E000F8012B84
:10656000491EFBD270470022F6E710B513460A46D3
:1065700004461946FFF7F0FF204610BD421C10F8F4
:10658000011B0029FBD1801A704730B5044600205A
:10659000034600E05B1C934203D2E05CCD5C401BF1
:1065A000F8D030BD034611F8012B00F8012B002A6A
:1065B000F9D1184670472DE9FE4F804681EA030065
:1065C000C00F0C46009021F0004123F00045B8EBCD
:1065D0000200A94105D24046214690461C460B4682
:1065E000024623F00040104347D0270DC7F30A00AE
:1065F000C3F30A510290401A019040286BDAC3F3AA
:10660000130040F4801B0098924620B10023D2EB87
:10661000030A63EB0B0B01985946C0F14002504648
:10662000FFF713FF06460D4650465946019A00F003
:10663000F7F910EB08006141002487EA115284EA5F
:10664000E7731A4340D0009A62B3019A012A4FEAD5
:10665000075215DC001B61EB02014FF0004202EA19
:106660000752CDE90042001C41F5801132462B460D
:1066700000F02EFA03B0BDE8F08F40462146F9E75E
:10668000001B61EB0201001C41F5801300185B4107
:106690002018A2F5001747EB030140EAD570B619A0
:1066A0006D4111E06D084FEA360645EAC0754FEAC4
:1066B0000752001B61EB0201001C41F580114908E3
:1066C0004FEA30000019514132462B4603B0BDE875
:1066D000F04F00F0EEB90098012240000023D0EB0B
:1066E000020263EBE073009821464FEAE074B8EBD6
:1066F000000061EB0401E9E783F000435BE781F010
:10670000004158E72DE9FE4F81EA030404F00044FC
:1067100021F0004100944FF0000B23F0004350EAB9
:1067200001045ED052EA03045BD0C3F30A54C1F300
:106730000A552C44A4F2F3340194A0FB0254C1F393
:10674000130141F48011C3F3130343F4801301FBDD
:10675000024400FB034E840A970A44EA815447EA44
:106760008357A4FB076802958D0A05FB07854FEA4E
:10677000932C04FB0C542705029D4FEA065847EA68
:106780001637B5EB08056EEB070C870E920E47EA3D
:10679000811742EA8312A7FB0201B6EB0B0164EBFF
:1067A00000042B0D43EA0C335E1844EB1C50DA4610
:1067B0005146E7FB0201C5F313044FEA0B3343EAEA
:1067C00014534FEA0432019C43EA0603A4F10C047B
:1067D0000294009CCDE900B400F07AF903B0BDE862
:1067E000F08F00200146F9E72DE9F04D81EA03041E
:1067F00004F0004B21F0004514464FF0000A23F04E
:10680000004150EA050220D054EA01021DD0C5F330
:106810000A570246C5F31303C1F31300C1F30A5626
:1068200040F4801543F48013A7EB0608101BD646EE
:1068300008F2FD3873EB050002D308F1010801E00E
:1068400092185B41B8F1000F03DA00200146BDE861
:10685000F08D00204FF48011064684460EE0171B91
:1068600073EB050705D3121B63EB050306434CEAE4
:10687000010C49084FEA300092185B4150EA0107C9
:10688000EDD152EA030012D082EA040083EA050146
:10689000084305D0101BAB4106D20122002306E0BD
:1068A00000224FF0004302E06FF0010253101AEB98
:1068B00006004CEB085110EB0A0041EB0B01BDE860
:1068C000F04D00F0F6B80EB5C10F80EAE070084454
:1068D000CA07002140F233438DE80E000A460B46FA
:1068E00000F0F6F803B000BD0EB540F2334102915E
:1068F0000021CDE900110A460B4600F0E9F803B08B
:1069000000BDC1F30A5210B5C1F3130140F2FF33C9
:1069100041F480119A4201DA002010BD40F2334365
:106920009A42A2F2334203DC5242FFF79DFD10BDB2
:10693000904010BD00F0004230F000400AD0C10D80
:1069400001F56071C0F3160042EA0151C208400728
:1069500011437047002001467047000030B5041E07
:1069600071F1000404DB4FF00044404264EB01018C
:10697000141E73F1000405DB1C464FF00043524225
:1069800063EB04038B4208BF824230BD30B5041E66
:1069900071F1000404DB4FF00044404264EB01015C
:1069A000141E73F1000405DB1C464FF000435242F5
:1069B00063EB0403994208BF904230BD01F00043ED
:1069C00030B421F0004150EA010206D00A0DA2F5D0
:1069D0006072C1F31301002A02DC30BC0020704752
:1069E000440F44EAC104C100E01830BC00EBC250BF
:1069F00000F028B830B50B460146002020220124C3
:106A000009E021FA02F59D4205D303FA02F5491B7C
:106A100004FA02F52844151EA2F10102F1DC30BD92
:106A2000202A06DBCB17203A41FA02F043EAE07352
:106A300006E041FA02F3D040C2F12002914008433F
:106A4000194670470029A8BF7047401C490008BF7D
:106A500020F00100704710B4B0FA80FC00FA0CF08E
:106A600050EA010404BF10BC704749B1CCF12004C6
:106A700021FA04F411FA0CF118BF01212143084353
:106A8000A3EB0C01CB1D4FEA00614FEA102042BF7F
:106A9000002010BC704700EBC35010440029A4BF75
:106AA00010BC7047401C490008BF20F0010010BC1A
:106AB000704710B5141E73F1000408DA401C41F150
:106AC000000192185B411A4301D120F0010010BD72
:106AD0002DE9F04D92469B4611B1B1FA81F202E0E8
:106AE000B0FA80F220329046FFF7AFFC04460F4622
:106AF00040EA0A0041EA0B0153465A46084313D0C4
:106B0000114653EA010019D0C8F140025046FFF780
:106B1000ABFC05460E46504659464246FFF795FCEB
:106B2000084305D0012004E020463946BDE8F08D39
:106B30000020054346EAE0762C4337430A98630574
:106B4000E40AA0EB08000022FD0A44EA47540A3098
:106B500002D500200146E9E7010510196941DDE988
:106B6000084500196941BDE8F04DA2E72DE9F04163
:106B7000054621F000400C46284309D0C4F30A50D2
:106B800040F23341884205DD28462146BDE8F081C8
:106B90002846FBE740F2FE31884210DC0CDB4FEA6E
:106BA000043040EA155050EA053105D0104804F091
:106BB000004101430020E9E700200146E6E7A0F29A
:106BC00033404642C6F1400228462146FFF73DFCCD
:106BD00007468846284621463246FFF745FC43468D
:106BE0003A46FFF766FF3246BDE8F041FFF72DBC9D
:106BF0000000F03FC1F30A52C1F3130140F2FF332A
:106C000041F480119A4202DA00200146704740F2B6
:106C100033439A42A2F2334202DC5242FFF724BCD1
:106C2000FFF713BC064C074D06E0E06840F0010397
:106C300094E8070098471034AC42F6D3FFF7E4FA23
:106C4000645804008458040070B58C1810F8015B77
:106C500015F0070301D110F8013B2A1106D110F8F5
:106C6000012B03E010F8016B01F8016B5B1EF9D1F9
:106C70002B0705D40023521E0DD401F8013BFAE77F
:106C800010F8013BCB1A921C03E013F8015B01F8EA
:106C9000015B521EF9D5A142D8D3002070BDF0B5DA
:106CA00000F5805292F8903B002B1ED0D2F8946BE6
:106CB000002356B1C2F8F43B02F6F4350124A0CD0E
:106CC000BD4208DD82F8FC4B07E0D2F8F44B641CAF
:106CD000C2F8F44BF0E782F8FC3B02F6EC35A0CDAD
:106CE000BD4203DA6D1CC2F8EC5BF0BD022500F575
:106CF000C050C2F8EC3B26B1012E31D0022E2BD170
:106D00007AE090EDE61AB4EEC01AF1EE10FA04D370
:106D1000B4EEE01AF1EE10FA07D202F6A83021C85C
:106D2000A84216D1C2F8944B17E090EDE71AB4EEE2
:106D3000C01AF1EE10FA04DCB4EEE01AF1EE10FA2B
:106D40000BDD02F6A83041C8B04202D1C2F8945B14
:106D500003E0401CC2F8A80BA2E0C2F8A83B9FE0E9
:106D600090EDE81AB4EEC01AF1EE10FA04DDB4EEBC
:106D7000E01AF1EE10FA4BDCD2F8D00B20B9B4EEE9
:106D8000C01AF1EE10FA07D9D2F8E45B3DBBB4EEBD
:106D9000E01AF1EE10FA22D878B9B4EEC01AF1EE8A
:106DA00010FA0AD8D2F8C40B801EC2F8C40BD2F86D
:106DB000C85BA84201DAC2F8C45BD2F8E40BF0BBAE
:106DC000B4EEE01AF1EE10FA6AD8D2F8D80B801EB1
:106DD000C2F8D80BD2F8DC5BA84250DB60E0D2F8F6
:106DE000C00B60BBD2F8B00B0A30C2F8B00BD2F8BF
:106DF000B45BA84252DC53E090EDE91AB4EEC01A3D
:106E0000F1EE10FA07D2B4EEE01AF1EE10FA02D267
:106E1000C2F8943BA1E7D2F8D40B20B9B4EEC01A63
:106E2000F1EE10FA08DAD2F8E85B5DBBB4EEE01AD6
:106E3000F1EE10FA26DB88B9B4EEC01A00E02FE0BC
:106E4000F1EE10FA0ADBD2F8C40B801CC2F8C40BB6
:106E5000D2F8CC5BA84201DDC2F8C45BD2F8E80BE3
:106E6000F0B9B4EEE01AF1EE10FA19DBD2F8D80B53
:106E7000801CC2F8D80BD2F8E05BA84210DDC2F843
:106E8000D85B0DE0D2F8BC0B50B9D2F8B00B0A3881
:106E9000C2F8B00BD2F8B85BA84201DAC2F8B05B16
:106EA000D2F8940B012802D0022848D123E002F640
:106EB000C43021C8A84202DCC2F8D04B01E0C2F8BD
:106EC000D03B02F6D830C2F8D43B21C8A84202DC3D
:106ED000C2F8E44B01E0C2F8E43B02F53B60C2F8C3
:106EE000E83B21C8A84203DB02F6BC3018C026E00C
:106EF000C2F8BC3B21E0D2F8CC5BD2F8C40BC2F89C
:106F0000D03BA84202DBC2F8D44B01E0C2F8D43B2C
:106F1000D2F8E05BD2F8D80BC2F8E43BA84202DB1F
:106F2000C2F8E84B01E0C2F8E83BD2F8B85BD2F80F
:106F3000B00BA842DCDCC2F8BC4BC2F8C03BB2F8D4
:106F4000B00B0880B2F8D80B0881B2F8D80B488192
:106F5000B2F8C40B8881B2F8C40BC881F0BD000040
:106F60002DE9F04104462DED028B0023DFED358A3B
:106F700000F23C7600F60805B0EE688AC3F1DB004B
:106F800004EB8007304697ED0B0A03F04FFC97EDBA
:106F9000E70A284603F04AFC5B1CDC2BEEDB0023EF
:106FA00004EB8307304697ED0B0A03F03FFC87EDB7
:106FB0000B0A97EDE70A284603F038FC5B1C87EDC7
:106FC000E70ADC2BECDB002504EB8506002196EDBF
:106FD000E70A402020EE000A00F02AFB78EE808AC3
:106FE00096ED0B0A0021402020EE000A00F020FB65
:106FF00038EE008A6D1CDC2DE6DBB0EE680A06F088
:107000008FFBDFED118AF0EE400A002180EEA80A26
:10701000202000F00DFB04F5406484EDC90AB0EEB9
:10702000480A06F07DFBF0EE400A002180EEA80A37
:10703000202000F0FDFA84EDCA0ABDEC028BBDE809
:10704000F08100000000000000005C432DE9F04FDB
:107050009A462DED048BA9B0164600279FED911A94
:107060003C4683ED001A82ED001A3A460BE000BF61
:1070700000EB820396ED000AD3ED000A521C30EEBD
:10708000200A86ED000A8A42F2DB00EE101AD6EDE5
:10709000000AA1F1010CB8EEC00A0DF1500BB0EEE0
:1070A000418AEE46C0EE801AC6ED001A0023F0EECB
:1070B000480A05252FE077B100220AE05BF822900C
:1070C000A9F11E08A84503DA09F11E08A84521DC2C
:1070D000521CBA42F2DB00EB850292ED000AB4EEDC
:1070E000E00AF1EE10FA15DDB4EEC10AF1EE10FA85
:1070F00010DD52ED011AB4EEE10AF1EE10FA09DBEF
:10710000D2ED011AB4EEE10AF1EE10FA02DBF0EE74
:10711000400A2B466D1C6545CDDB53B103F11608C3
:10712000884543DA00EB8302994692ED000ADA1CA7
:1071300023E0002C7DDDB0EE480A0020F0EE400A8E
:1071400075463EE000EB8205D5ED001AF4EEC01A5C
:10715000F1EE10FA10D215ED012AF4EEC21AF1EE9A
:1071600010FA09D895ED012AF4EEC21AF1EE10FAE0
:1071700002D89146B0EE610A521C4245E2DD9945C3
:1071800014DDB0EE001AF0EE601AB0EE082A40EE00
:10719000011A30EEC00AF1EE060A0EEB8402641CFE
:1071A00020EE200A81EE821A82ED000A4BF8273089
:1071B0007F1C7BE705EB8001401C91ED001A71EE0E
:1071C000200AA042F6DB01EE104ADDED008A002025
:1071D000B8EEC11AB0EE689AC0EE819AF0EE400A9D
:1071E00017E000BF05EB800191ED000AB4EEE80A5C
:1071F000F1EE10FA01DDF0EE408AB4EEC90AF1EECC
:1072000010FA01D2B0EE409A39EEC00A401C40EEAE
:10721000000AA042E6DB00EE104AB8EEC01A80EE8B
:10722000810A06F07DFA78EEC90A369880EEA81A2F
:1072300000E030E080ED001A002079EE800A39EE9F
:10724000C01A014612E000BF05EB810292ED000A70
:10725000B4EEE00AF1EE10FA07D2B4EEC10AF1EE94
:1072600010FA02DD30EE088A401C491CA142EBDB1B
:10727000002808DD00EE100AF8EEC00A88EE200AA9
:10728000B0EE408A01E0B0EE698A96ED000A20EE89
:10729000080A8AED000A29B0B0EE480ABDEC048B5A
:1072A000BDE8F08F00000000704700F001B87047A3
:1072B00010B5044600F23C70FFF7F9FF04F6080031
:1072C000FFF7F5FF04F6D400BDE81040FFF7ECBF70
:1072D000B0EE402A20EE010A00EEE10A62EE211A29
:1072E00040EE811AF0EE610A704700002DE9F04F80
:1072F0002DED068B85B004468A460020029094F856
:107300001980267EA07D049094F817B0607D0390CC
:10731000277D00257AE061480068FFF7E5FA41EC37
:10732000180B04EB4511B1F900105D4AB2F90020C9
:10733000501AFFF7C8FA41EC1A0BB0EE4A0AF0EE09
:107340006A0AFFF7F3F8B0EE409AF0EE609A53EC59
:10735000182B51EC190BFFF719FB45D94F48006862
:10736000FFF7C2FA41EC180B04EB4511B1F902101A
:107370004C4AB2F90020501AFFF7A5FA41EC1A0B5B
:10738000B0EE4A0AF0EE6A0AFFF7D0F8B0EE409A83
:10739000F0EE609A53EC182B51EC190BFFF7F6FA4C
:1073A00022D93E480068FFF79FFA41EC180B04EB26
:1073B0004511B1F904103C4AB2F90020501AFFF708
:1073C00082FA41EC1A0BB0EE4A0AF0EE6A0AFFF7B5
:1073D000ADF8B0EE409AF0EE609A53EC182B51ECF9
:1073E000190BFFF7D3FA01D80120029004EB4510E6
:1073F00000882B49088004EB451040882949088003
:1074000004EB45108088284908806D1C554582DBB7
:10741000029840B1C14506D0002002902348006880
:10742000401C22490860C14621480068301A0528DE
:107430002ED31F4806601D4800781E491E4A127848
:1074400088541A4800681D4908601D48007810B922
:1074500009F076FE12E01A480078012807D100975B
:1074600059463046DDE9033209F01CFE06E000977C
:1074700059463046DDE9033209F078FD0097594658
:107480003046DDE9033203F0EFFC002007490860D5
:1074900005B0BDEC068BBDE8F08F00009C2B0020F2
:1074A000B02B0020B22B0020B42B0020A02B0020FA
:1074B000AC2B00206A560020992B0020A42B002022
:1074C000A82B00202DE9F04104462DED068BB0EEEF
:1074D00040AA9FED569A0026F0EE498AB0EE498AFE
:1074E00004EB8605172195EDE70A202020EE0A0A15
:1074F00000F09EF8D5ED0B0A94F8380770EEC09AAC
:1075000018B995EDE70A70EE288AB0EE690A1721DE
:10751000202000F08DF805F5006585ED350A94F81A
:10752000380738B9B0EE680A1721202000F080F83B
:1075300085EDA30AB0EEE90AF0EEC80AB4EEE00A5F
:10754000F1EE10FA01DDB0EE698A94F8380750B90F
:10755000B0EEE80AF0EEC80AB4EEE00AF1EE10FA76
:1075600001DDB0EE688AB0EE490A08B9F0EE408A53
:10757000761C6E2EB4DBB0EEC80AB7EE001A10EE21
:10758000100AC1EE000AB2EE041A4FF07E57B8425C
:1075900020EE818A1EDD002604EB860505F50065D8
:1075A000172195ED350A202020EE080A00F040F85A
:1075B00085ED350A94F8380748B995EDA30A1721E7
:1075C000202020EE080A00F033F885EDA30A761C8F
:1075D0006E2EE1DB04F6D40003F078F8B0EE490A31
:1075E00084ED0A0A5FF01B0504EB850000F540609E
:1075F000782190ED110A802020EE000A00F018F8A2
:1076000039EE009A6D1C6E2DEEDBB0EE000A012003
:1076100084F8380729EE000A06F082F8BDEC068BE4
:107620003C214020BDE8F04100F002B8000000001D
:10763000704700002DE9F8430025DFF894804FF4EF
:10764000807601242F46009530460EF08DFB38B130
:10765000D8F80403204203D030460EF07BFB2543CC
:10766000361D64007F1CB6B2082FEDD34FF4BE74F4
:1076700020460EF079FB48B120460EF06BFB45F03A
:1076800000456A46012100200EF024FB15F0FF0F93
:1076900016D0012600242E420ED008EB8401D1F82A
:1076A0001005D1F81015C0F304200A4AC1F30141B6
:1076B00052F8242002B190477600641C082CEAD3CB
:1076C000002D02DA684612F0EBFBBDE8F8830000FB
:1076D00000600040143700200A4801780A4800780A
:1076E00008B90020704708480078012800D1F9E760
:1076F000062901DC0320F5E71E2901DC0220F1E761
:107700000020EFE7A42B0020A82B002016F006BADB
:1077100016F0C2BB70B505462DED028BF0EE408A27
:1077200084B09FED1A0A00F580508DED010A8DEDB1
:10773000020A0C468DED030A90F819191E46B0EEA8
:10774000608A31B9012180F8191905F5996010F0A6
:10775000BBF803A8009002AB94EC030A01AAF0EE78
:10776000481A0121284616F057FB01AB324693EC2C
:10777000031AF0EE480AB0EE680A0121284616F016
:10778000DDFB04B00020BDEC028B70BD00000000EA
:107790002DE9F04100F500642DED048BF0EE409AE8
:1077A000F0EE608A9FED308A94ED220A84B01F4685
:1077B00038EE409A30EE280A90460D46064684ED93
:1077C000220A37E0C9EE280A94ED1E0AD5ED001A08
:1077D00039EE089A39EEC01A3B46424669463046B1
:1077E00001EE200A94ED1F1A71EEC11A01EEA01AE3
:1077F0008DED001AD5ED011A94ED201A71EEC11A23
:1078000001EEA01A8DED011AD5ED021A94ED211AA0
:1078100071EEC11A01EEA01A8DED021AD4ED220A02
:1078200070EEC80AC4ED220AF0EE480AFFF772FFB4
:1078300094ED220AB4EEC80AF1EE10FAC2DAC4EDF1
:107840001E9A95ED000A002084ED1F0A95ED010AAD
:1078500084ED200A95ED020A84ED210A04B0BDEC06
:10786000048BBDE8F08100000000484216F08ABD9C
:1078700030B5A2F12805039CC92D0AD2F02B08DCF3
:10788000282B06DB9A4204DB002902DB1CB1012C09
:1078900001D0002030BD00F59E601EC080ED000AC2
:1078A000012030BD002A01DB002901DA00207047E9
:1078B00000F2045006C001207047B5EEC00AF1EE98
:1078C00010FA04D310EE101AB1F17E5F01DD002032
:1078D000704700F5806080ED340A01207047000099
:1078E000042901D30020704701228A4000EE102AAB
:1078F000B7EE001A00F58060F8EEC00A81EE200AAB
:10790000DFED090A60EE200AC0ED380ADFED070A54
:1079100060EE200AC0ED390ADFED050A20EE200AEC
:1079200080ED3A0A012070470000484300007A4485
:1079300000401C46042901D30020704701238B40DE
:1079400000EE103AB7EE001A00F58060F8EEC00ABB
:1079500081EE200A00EE902A9FED0E1AF8EEE00A62
:1079600040EE010A9FED0C1AC0ED380A00EE902A95
:10797000F8EEE00A40EE010A9FED081AC0ED390A60
:1079800000EE902AF8EEE00A40EE010AC0ED3A0A55
:10799000012070470000484300007A4400401C4624
:1079A00010B5A1F12804C92C08D2F02A06DC282A37
:1079B00004DB914202DB1BB1012B01D0002010BD82
:1079C00000F20C5080E80E00012010BD002902DBFF
:1079D0001AB1012A01D000207047C0F81825C0F85C
:1079E0001C15012070470000B4EEE00AF1EE10FA19
:1079F00012D3B5EEC00AF1EE10FA0DD3F5EEC00ABF
:107A0000F1EE10FA08D310EE101A134A914203DC7B
:107A100010EE901A914201DD002070479FED0F1A81
:107A200060EE011A60EE810AFDEEE11AFDEEE00A59
:107A300011EE901AC0F8D41410EE901AF3EE040A66
:107A4000C0F8D81420EE200ABDEEC00A10EE101ABD
:107A5000C0F8DC14012070470000204100007A4487
:107A6000B5EEC00AF1EE10FA01D20020704700F521
:107A7000806080ED330A01207047002901DA002080
:107A80007047C0F8EC1401207047002901DA00208B
:107A90007047C0F8C8140120704700F5806383ED7B
:107AA0008A0AC0F82C16C3ED8D0AC0F830260020D3
:107AB000704700002DE9F05FDFF8609107460E4641
:107AC000D9F8040007F088FB56485749544C401A2F
:107AD000C008032101EB0045544822794FF000080B
:107AE00000F1080A92B1012A3FD0022A7ED17C78A7
:107AF000E0067BD528464EA10EF050FBF888C4F373
:107B00004011BDE8F05F40BA13F02AB93978AD29C9
:107B10006CD1A4F80880834632463946FEF70AFD48
:107B20002681BBF8020040BA0830801B00B2608199
:107B3000002817DC9BF801705E46F80609D5284638
:107B400047A10EF02BFB84F80480C7F34011F088A6
:107B5000D7E702202071A4F80880284646A10EF03D
:107B60001DFB37E0012020714CE021898346084449
:107B700032463946FEF7DEFC208930442081608998
:107B8000801B00B2608100283CDC9BF801005E464F
:107B9000C10606D584F80480C0F34011BBF8060086
:107BA000AFE702212171A4F80880B088A14644BA49
:107BB0007088474642BA5146002007F075FEA04241
:107BC00011D128462CA10EF0E9FAF088012140BA23
:107BD00000F070F87088124A41BA5046BDE8F05F74
:107BE000121D00F0E5B889F8047000E014E02846A2
:107BF00028A10EF0D3FAF088BDE8F05F40BA00216A
:107C000000F058B8D9F80400BDE8F05F044A4FF41A
:107C10000031121D07F096BABDE8F09F983B0400B2
:107C20008829002064590400A4580400584D0020FD
:107C30007265636569766520612061636B207061A0
:107C4000636B61676520647572696E67204D45538B
:107C5000534147455F5245534F4C56450A0000007B
:107C60007265636569766520612061636B20706170
:107C7000636B6167650A000077696C6C2073656EE1
:107C800064207375636365737320726573706F6EC0
:107C900073650A0077696C6C2073656E642063728B
:107CA00063206661696C20726573706F6E73650A1C
:107CB00000000000054A10B5917010800120D070BE
:107CC0000221104615F074F9002010BD94290020FF
:107CD00070B5044618481949401AC008032101EB41
:107CE000004017A10EF05AFA24B31B4DAB202870A8
:107CF000002068702289100AA870EA7000202168AC
:107D000007F0D2FD010A2971A5F128016871C88820
:107D1000020AAA71E87122896281A081401CC88090
:107D2000A5F11000012181800460204615F040F982
:107D3000002070BD072070BD64590400A4580400E1
:107D400077696C6C20726573656E64206120706168
:107D5000636B6167650D0A00B0290020F8B5124C0D
:107D60000546AB202070002060702889000AA070B2
:107D7000287AE0702A890020296807F095FD010A19
:107D80000A4E21716071F088010AA171E0712889A1
:107D900069460830ADF80000204608F0D3FEF088B0
:107DA000401CF0800020F8BD484B002088290020AE
:107DB00010B5144603000BD051B1197898780229F8
:107DC00008D0032920D0042911D0052926D11EE08E
:107DD000072010BD012802D0022804D01EE0D81CC4
:107DE00013F0B4F81AE0D81C13F074F816E0022867
:107DF00004D0012805D0032806D00FE007F020FDAD
:107E00000CE007F037FD09E00AF0C2F806E005498A
:107E100001EB800151F8041C01B18847002020705B
:107E200010BD0000B82900207FB504460D46054B63
:107E30000FCB8DE80F005DF8242003A1284605F044
:107E400013FA7FBD1C3E0400257300002DE9F043AA
:107E50000024234600290EDC002108E001EB410448
:107E6000491C20F8143000EB44046380A380914245
:107E7000F4DBBDE8F08391427EDA4C1E00EE104A3E
:107E8000541EA54BB8EEC01A00EE104A5B68264699
:107E9000B8EEC00A002403F6D403C1EE000A84E061
:107EA000A4B1B44219D101EB410500EB450504EB47
:107EB000440735F806CC23F817C003EB470735F81D
:107EC00004CCA7F802C035F8025C6CE005881D8080
:107ED00045885D8085889D8066E000EE104A04EB51
:107EE0004409B8EEC00A60EE801ABDEEE10A10EE59
:107EF000108A08F1010505EB450C08EB480530F93F
:107F00001C7030F9158000EB4C0CA7EB080701EE54
:107F1000107A00EB4505B8EEC12AB8EEC01A71EE32
:107F2000C12A01EE108AB8EEC11A02EE221ABDEE85
:107F3000C11A11EE108A23F81980BCF90270B5F944
:107F40000280A7EB080701EE107A03EB4907B8EEB1
:107F5000C12AB8EEC01A71EEC12A01EE108AB8EE3D
:107F6000C11A02EE221ABDEEC11A11EE108AA7F84C
:107F70000280BCF904C000E02EE0B8EEC00AB5F9FA
:107F80000450ACEB050C71EEC01A01EE10CA00EE05
:107F9000105AB8EEC11AB8EEC00A01EE210ABDEEC1
:107FA000C00A10EE105ABD80641C9442FFF678AFF0
:107FB00000210EE001EB4104491C33F8145020F875
:107FC000145003EB440500EB44046E886680AD88D2
:107FD000A5809142EEDB4CE700EE102AF8EEC00AD5
:107FE00000EE101AB8EEC00A80EE801A9FED4B0A20
:107FF00000238CE0F0EE402A30EE010A14F1010477
:1080000000EE903AF8EEE00AB4EEE00AF1EE10FA73
:10801000F0D38CB18C421BD104EB440500EB450539
:1080200003EB430635F8067D20F8167000EB460694
:108030006F887780AD8868E003EB4305068820F8F9
:10804000156000EB450546886E808688AE805DE051
:1080500000EE903A30EE622A04EB4406F8EEE00AB5
:1080600000EB460530F9166035F9067D70EEE21A30
:10807000C1EE820A01EE907AB8EEE12AF7EE001A1C
:1080800031EEE03A01EE906A03EB430622EE032A5A
:10809000F8EEE11A01EEA02AF6EE001A32EE212ADD
:1080A000BDEEC22A12EE107A20F81670B5F90270F1
:1080B00000EB460602EE107AB5F90870B8EEC22A57
:1080C00003EE907A22EE032AF8EEE33A03EEA02ABA
:1080D00032EE212ABDEEC22A12EE107A7780B5F96F
:1080E0000470B5F90A5002EE107AB8EEC22A22EEF8
:1080F000032A03EE105AB8EEC33A03EE202A72EEBA
:10810000210AFDEEE00A10EE905AB5805B1C934206
:10811000FFF676AFADE60000DC2A0020000000008C
:1081200070B5DFED2C0A05462DED048BB0EE600A2C
:108130005FF0000005EB8001401C91ED0B1ADC287C
:1081400071EE200A91EDE71A31EE000AF2DB05F537
:1081500040609FED211AC0EE018AB7EE000A80EE62
:10816000818AC0EDC78AC0EE289A80EDC88AB5EE34
:10817000C08A80EE089AF1EE10FA28D0F5EEC08A97
:10818000F1EE10FA23D0002605EB8604172194EDBA
:108190000B0A202030EE480A84ED0B0AD4EDE70AE2
:1081A00020EE090A70EEE80AC4EDE70AFFF740FA8C
:1081B00084ED0B0A94EDE70A1721202020EE290A0E
:1081C000FFF736FA761C84EDE70ADC2EDCDBBDEC2B
:1081D000048B70BD0000000000005C4310B5044635
:1081E000FFF75BFC9FED0B0A04F5806080ED8E0AC3
:1081F00080ED8F0A002008E004EB800101F580612A
:10820000401C81ED4A0A81ED6A0AD4F82C1681429D
:10821000F2DC10BD00000000F0B500F580532DED3C
:10822000028B81B0002783F8307483F83174C3F86F
:108230003874C3F83C74044683F840749FEDBB0A5D
:1082400000F5A05585ED110A9FEDB91A042085EDC2
:10825000121ADFEDB80AC3F84C0404F5C056C5ED98
:108260001A0AC6EDD50AC6EDD60AC3F85C7BC3F878
:10827000607BC3F8647BC3F8687BC3F86C7BC3F88E
:108280002873C3F82C732046C3F8707B02F048FFB4
:108290005FF0000004EB800101F5A051401CC1ED2E
:1082A000F90AC1ED1D0ADC28F4DB202103F2544257
:1082B0000120C3F8501403C203F538623C2182C286
:1082C000C3F85C04C6EDE20AC3F88C7BC5ED1B0A5B
:1082D000C5ED1C0AC6EDDD0AC6EDDE0AC3F87C7BDF
:1082E00083F8907B83F8FC0B9FED930A85ED050ADC
:1082F0009FED920A4FF0140C85ED060A83F81C746A
:1083000083F81D74C3F824C49FED8D0AC3F828C4F4
:10831000C3F8207485ED0B0A9FED8A0AC3F8947B9D
:1083200086EDE60A9FED880A86EDE80A9FED870A4A
:1083300086EDE90A9FED860A0A2286EDE70AC3F870
:10834000A87BC3F8AC2B4FF42F72C3F8B02BC3F843
:10835000B42B03F6B836642284C63F22C3F8C42B7C
:10836000C3F8C07B03F6C833064685C3A3F6D433EF
:10837000C3F8D82BC3F8D47B03F6DC3385C3A3F64C
:10838000E83303F53F62C3F8E87B1920C3F8EC7BC0
:1083900081C2C3F8007C4FF4FA60C3F8046CC3F8E0
:1083A000F80B83F8087C0520C3F80C7CC3F8140C88
:1083B0007D20C3F8100C43F81C7F84F8517FC3ED77
:1083C0000F0AC3ED030AB0EE000A83ED040A9FED25
:1083D000610A83ED050A9FED600A83ED060A83F8C2
:1083E00078709FED5E0A83ED120AD964C3ED150A19
:1083F000B1EE040A83ED160AB6EE000A83ED170A01
:108400001E779FED570A83ED080A9FED560AC3F8C1
:1084100074C083ED090A0F219FED530AD96283EDE1
:108420000C0A83F834609FED510A04F5005083ED87
:108430000E0AC3EDC60AA3F81C73A3F81673C0EDA9
:10844000C70AC0EDC80AC0EDC90AC0EDC40AC0ED34
:10845000C50AC0EDC60AA0F80C7383F82073A3F810
:108460002273A3F824739FED420A83EDCA0ADFED5D
:10847000411AC3EDCB1ADFED401AC3EDCC1ADFED84
:108480003F1AC3EDCD1A9FED3E8A1E2083EDCE8AA2
:10849000C3F83C03DFED3B1A42F22C30C3EDD21A95
:1084A000DFED391A2044C3EDD31A83ED181A59664B
:1084B00083ED1A0A83ED1B8AC5ED030AC5ED040A94
:1084C000044612F08FFD9FED310A204612F0ECFEBB
:1084D000B0EE480A204612F018FEF1EE040AB1EEA2
:1084E000040A204612F0A4FE0A21204612F0E9FEFA
:1084F00000220121204612F01BFEB0EE480A28237C
:1085000096220F212046009612F0DAFD0023282241
:10851000C821204612F076FE01B02046BDEC028B49
:108520000122BDE8F040032112F0E4BD00009042BA
:108530000000BE420000000000002F440000FA438B
:10854000001B374A80610C4A00EFE74900BADB495B
:10855000001BB7490000C842000070429A99BD4212
:108560000000B44200409C453333733F00401C463A
:108570009A99593F9A99793F8FC2753FD7A3703F17
:108580006666663F0000C3420000BD423333B33E1F
:108590000BF0ECB970B504462DED028BC0B09FED29
:1085A000420A00F54065002685EDD20A9FED3F0A9C
:1085B0009FED3F8A85EDD30AC66080ED068A80ED87
:1085C000078AB6EE000A80ED040A80ED088A80ED85
:1085D000098A80ED0A8A04F58060DFED360A80EDB5
:1085E000C38A80EDC48AC0EDC50AF7EE000AC0ED6B
:1085F000C60A80EDC70A9FED300A30A180EDC80A97
:108600000620C4F8140F6846FDF7CCFFD4F8140F09
:10861000B3EE091A00EE100A6B466E22B8EEC00ADD
:10862000202104F6D400C1EE000A9FED280AFFF7CE
:10863000D5FD266066600020C4F8086004EB800168
:10864000401C81ED0B8A81EDE78ADC28F6DB04F221
:108650003C70FFF79DFF04F60800FFF799FF85EDDA
:10866000C68A85EDC78A85EDC88A85EDC98A85EDFC
:10867000CA8A85EDCB8A85EDCC8A85EDCD8A85EDDC
:10868000CE8A85EDCF8A85EDD08A85EDD18A84F8B2
:10869000506F04F5805484ED088A84F8F46240B089
:1086A000BDEC028B70BD000082A87B380000BE428A
:1086B00000000000CDCCCC3D6666663E2E53704F68
:1086C000325F4C4D532E747874000000ACC52737D0
:1086D0000146002901DA484200E0084600B270472E
:1086E0003D4A127822F060023B4B1A703B4A1278E6
:1086F000012A35D13A4AB2F90020904264DA394A67
:10870000B2F9002090425FDA354AB2F90020354BC9
:10871000B3F900309A4203DD314AB2F9002002E099
:10872000304AB2F900200A80B1F900202E4BB3F98B
:108730000030D21A182A47DD0A882C4B1A801A46B4
:108740001288294B1B88D21A294B1A80FF22234BEF
:108750001A70214A127842F040021F4B1A7033E01F
:108760001F4AB2F9002090422EDD1E4AB2F90020C5
:10877000904229DD1A4AB2F900201A4BB3F90030B1
:108780009A4203DA164AB2F9002002E0154AB2F919
:1087900000200A80B1F90020144BB3F900309A1A76
:1087A000182A11DD0A88104B1A80104A12881B887B
:1087B000D21A0F4B1A800122084B1A70064A1278FF
:1087C00042F02002044B1A70054AB2F90020054B12
:1087D0001A80034A10807047C42B0020222C0020EE
:1087E0001E2C0020202C0020262C0020242C0020D1
:1087F000D02B00202DE9F0414FF4807630460CF06C
:1088000095FD234CB50560B130460CF096FD012076
:10881000C5F80803607920B9012060712168002043
:1088200088474FF4827630460CF080FD40B13046E8
:108830000CF083FD0220C5F8080321680120884759
:108840004FF4887630460CF071FD40B130460CF0A4
:1088500074FD1020C5F808032168022088474FF4F2
:10886000867738460CF062FD00280ED009480026B5
:10887000066038460CF061FD0820C5F80803A671B3
:108880002168BDE8F04103200847BDE8F081000001
:10889000D4270020340C00402DE9F34F05462DED80
:1088A000108B89B09FEDFEFA9FEDFE8A6E264FF089
:1088B000000ADFEDFDCADFEDFD8ACDF804A000F56A
:1088C000805400F5406794ED1DBA97EDD6AAD4ED1B
:1088D00010DA94F83003D14608B1D4ED11DAA06C67
:1088E000002805DDD4F82C13814201DB94ED13AA96
:1088F00094EDC40AD4EDC50A94EDC71AD4EDC91A93
:1089000030EE600AD4EDC60A5FF0000030EEC11A06
:10891000D4EDC80A70EEE10A30EE010A30EE20DA3A
:10892000B0EE480A05EB400101F58051401CB1F959
:108930003C11DC2800EE901AF8EEE00A30EE800AD6
:10894000F0DB9FEDDB1A84ED4BDAC0EE010AC4EDDB
:108950004C0A286868602846FFF7E2FBD4ED0B2A32
:108960004FF07E584FF0000BF5EEC02AF1EE10FAF2
:108970007EDD95EDE71AD5ED0B1A0120F0EE410AE8
:10898000B0EE610A05EB800191EDE72AB4EEC12A51
:10899000F1EE10FA01DDB0EE421AB4EEE02AF1EE8B
:1089A00010FA01D2F0EE420A91ED0B2AB4EEE12A60
:1089B000F1EE10FA01DDF0EE421AB4EEC02AF1EE4B
:1089C00010FA01D2B0EE420A401CDC28DADB71EE6C
:1089D000600A31EEC00AB74910EE900A884233DCD3
:1089E00010EE100AB44988422EDC30EEC01AB349AA
:1089F000B0EEC11A11EE100A884209DD10EE900A9D
:108A0000AF49884220DC10EE100AAE4988421BDCD8
:108A100095F8510FD0B9D4F82C01B0F1894F15DD7C
:108A2000A949D4F83403884210DA11EE100AA74994
:108A300088420BDD10EE900AA549884204DC10EE56
:108A4000100AA449884201DD4FF0010AB0EE6C1A09
:108A5000F4EEC10AF1EE10FA04D3B4EEE80AF1EE36
:108A600010FA01D20120019095F8500F00B900E0F2
:108A700027E095F8510F20BB12EE900A404520DD0B
:108A8000BAF1000F03D00520A4F83A0319E0B4F9B5
:108A90003A03002815DD019959B970EE600A8E4A33
:108AA00010EE901A914208DD10EE101A8B4A914296
:108AB00003DD401EA4F83A0301E0A4F83AB34FF0F6
:108AC000010A2846FEF74CFA02A8009004AB03AA5C
:108AD000DC2105F56770FEF7B9FA07A80090F0EE03
:108AE00040EA06AB05AADC2105F12C00FEF7AEFA40
:108AF000B0EE40EAB0EE480AB0EE481AF0EE480A8E
:108B0000F0EE481A5FF0000005EB8001401C91ED8B
:108B10000B2AB04272EE200A91EDE72A72EE211A7A
:108B2000F2DB02EE106A0020B8EEC22AC0EE828AA2
:108B300000EE906AF8EEE00A81EEA09A05EB800163
:108B4000401CD1ED0B0AB04270EEE80A00EEA00A1C
:108B5000D1EDE70A70EEC90A00EEA01AEEDB00EED6
:108B6000906AF7EE00AAF8EEE00A70EEEA1AC0EE9C
:108B7000210A00EE106AB8EEC00A30EE6A0AC1EEB1
:108B800000BAB0EE600A04F0CBFDF0EE409AB0EE11
:108B90006B0A04F0C5FDF0EE400AB0EE480A002072
:108BA00005EB8001401C91ED0B1AD1EDE71AB042A4
:108BB00031EE681A71EEC91A01EE210AF0DB01EEFE
:108BC000106A69EEA00AB8EEC11A71EE6A1A80EE58
:108BD000211A81EE200AF0EEC08A18EE900AB0F158
:108BE0007E5F01DDF0EE6A8A94EDCD0AF0EE00BA08
:108BF000B0EE681AB5EEC00AF0EE6B0AB0EE08CA25
:108C0000F1EE10FA12DD70EE411A3549F0EEE11A7C
:108C100011EE900A884201DDF0EE4C0A40EE208A07
:108C200070EEAA1AC8EEA10AF0EE608A30EE410A90
:108C3000DFF8B080B0EEC00A10EE100A404502DA4C
:108C400084EDCD1A01E0C4EDCD8A85ED058AF6EEFE
:108C5000009A85ED088A85ED098AB0EE690A1A2125
:108C60002020FEF7E5FC85ED040A05F580669FED02
:108C70001E0A86EDC48A85F838B71A212020FEF72F
:108C8000D7FC86EDC50AB3EE040A1A212020FEF7B0
:108C9000CFFC86EDC60AD6EDC50A30EE600A25E0A7
:108CA0007A371E3F000000000AD7A33C8FC2753CF4
:108CB00000005C438FC2F53D9A99193E0AD7A33C48
:108CC000EC51B83D5C8FC23DF6287C3F5839B43C2E
:108CD000CDCC4C3D295C8F3D8FC2753CEC51383D6D
:108CE000CDCC4C3ECDCCCC3D6F12833A20EE0F0A5A
:108CF00017212020FEF79CFCD6EDC50A0022104665
:108D000070EE800AC6EDC70AD6EDC60A30EEC00A7C
:108D100086EDC80A05EB800105EB820391ED0B0A95
:108D2000D1ED0C0A801C521C30EE200ADC2820EE0B
:108D3000290A83ED0B0A91EDE70AD1EDE80A30EE3E
:108D4000200A20EE290A83EDE70AE3DB96EDC70A45
:108D50002846FEF7B7FB86EDCB0A96EDC80A2846F3
:108D6000FEF7B0FB86EDCC0AD6EDCB0AB4EEE00AF6
:108D7000F1EE10FA06DD96EDC80A86EDC50AC6EDDD
:108D8000CD0A0AE0F4EEC00AF1EE10FA05DDD6EDE8
:108D9000C70AC6EDC60A86EDCD0A00209FEDFE9AF1
:108DA000C5F80C0096EDC60AD6EDC50A1A2120209A
:108DB00030EE600A20EE0F0AFEF73AFCD6EDC50A47
:108DC00030EE801A86EDC71AD6EDC60A30EEC00A1C
:108DD00086EDC80AD6EDCC1AD6EDCB0AF4EEE01A31
:108DE000F1EE10FA0BDD96EDCD0A284686EDCC0AA1
:108DF000B0EE410AFEF766FB86EDCB0A0DE0F4EE1D
:108E0000E10AF1EE10FA08DDD6EDCD0A2846C6EDEE
:108E1000CB0AFEF757FB86EDCC0AD6EDCC0A96EDD1
:108E2000CB0AF4EEC00AF1EE10FA06DDD6EDC80A60
:108E3000C6EDC50A86EDCD0A0AE0B4EEE00AF1EE11
:108E400010FA05DD96EDC70A86EDC60AC6EDCD0A15
:108E500095F8510F30B194ED160AB5EEC00AF1EE57
:108E600010FA02D19FEDCD0A01E09FEDCD0A272136
:108E70002820FEF7DDFBF0EE40FAB0EE490A1F2194
:108E80002020FEF7D5FBD6EDCC0A96EDCB1A70EE7E
:108E9000C10AF0EEE00AF4EEEF0AF1EE10FA0CD29D
:108EA000D6EDC50A96EDC61A70EEC10AF0EEE00ADC
:108EB000F4EEC00AF1EE10FA05D3E868401CE86051
:108EC0001528FFF66FAF96EDC50A284685ED040A12
:108ED000FEF7F8FA85ED090A95ED040AB14A84ED2A
:108EE000090A2089D7EDD50A0028B4F90A0020EE36
:108EF00020FAAD4905EB800000F5406053D0D0ED7D
:108F0000F70A30EE800A80EDF70A18EE900A8842E0
:108F10000FDB94ED090A10EE100A904209DBD7ED41
:108F2000F40A30EEC00AB0EEC00A10EE100A404556
:108F300008DDB4F90A0005EB4002B2F8E80F401C66
:108F4000A2F8E80FB4F90A0094ED090A05EB8000D5
:108F500000F54060D0EDFC0AF4EEC00AF1EE10FA24
:108F600001D280EDFC0AB4F90A0094ED090A05EB80
:108F7000800000F54060D0EDFF0AF4EEC00AF1EE8B
:108F800010FA01DD80EDFF0A94ED090A87EDF40A7D
:108F90002089401C00B22081DFED84FA4FF0010BE4
:108FA000052832D082E280EDF70A18EE900A884256
:108FB0000FDB94ED090A10EE100A904209DBD7EDA1
:108FC000F40A30EEC00AB0EEC00A10EE102A424594
:108FD00008DDB4F90A0005EB4000B0F8E82F521C98
:108FE000A0F8E82FB4F90A0094ED090A05EB800017
:108FF00000F5406080EDFC0AB4F90A0094ED090A1E
:1090000005EB800000F54060BCE7B4F90A00F1EE22
:10901000040A05EB800000F540604FF0000E90ED73
:10902000F70A80EE201A80EDF71A6089401C00B222
:109030006081A4F808E00328B4D19FED5D1AF0EE3A
:109040006F1ADFED5C2ADFED5C0A9FED5C5AB5F923
:10905000E82FB5F9EA0F08900244B5F9EC0F00903B
:10906000101802D0012803D004E0F0EE601A01E0ED
:10907000F0EE6C1A94ED1E0AB5EEC00AF1EE10FA8D
:109080000ADD89EE802A22EE011A62EE211A20EE14
:109090002B2A62EE225A05E09FED491AF0EE485A5B
:1090A000F0EE411A10EE102AB2F17D5F06DDB7EE48
:1090B0000C2A32EE402A22EE055A06E010EE102A63
:1090C000404B9A4201DDB0EE485A10EE102A3E4B5A
:1090D0009A4202DAF0EE480A05E010EE102A8A42BF
:1090E00001DDF0EE490AD5F8D41F4A1E032A02D248
:1090F000491CC5F8D41F00296EDCD7EDF74A334A66
:1091000014EE901A914268DD97EDF94A304A14EE58
:10911000101A914261DDD7EDF82A32EEC17AF4EEF1
:10912000C74AF1EE10FA06D234EE612AF4EEC22AF2
:10913000F1EE10FA0DD372EEE11AF4EEE14AF1EE1F
:1091400010FA4AD274EE411AF4EEE12AF1EE10FA66
:1091500043D2204A03287CDAD7EDFD6AD7EDFC3AEA
:1091600076EEA01AF4EEE13AF1EE10FA71D297ED34
:10917000FE6A76EE201AF4EEE16AF1EE10FA68D299
:10918000D4ED001A97EDFF2A31EEA03AB4EEC32ACF
:10919000F1EE10FA5DD221E00AD7233CFFEB2F2D30
:1091A00077CCAB313333333FCDCC4C3FCDCCCC3C03
:1091B000295C0F3DEC51B83D0AD7A33B8FC2753DEA
:1091C00000007A440000E03FCDCCCC3E5C8F823F73
:1091D000CDCC8C3F9A99993F22E120E194ED013A60
:1091E00073EE200AF4EEE01AF1EE10FA31D273EECB
:1091F000C20AFE4B6FF07E51F4EEE50AF1EE10FA72
:1092000010D312EE10CADFF8E8838C44C44520D294
:1092100011EE90CADFF8DC83C4451ADD13EE10CAE4
:109220009C457CDD76EEE10AF4EEE50AF1EE10FAFB
:109230001AD311EE90CADFF8C083C444DFF8BC83B0
:10924000C44511D310EE10CADFF8B483C44566DDFF
:1092500000E064E013EE10CADFF8A883C4455EDACC
:1092600011EE90CA9C455ADD76EE430AF4EEE50A0B
:10927000F1EE10FA2BD310EE10CADFF88483C44548
:109280000EDD16EE10CABCF17F5F09DD11EE90CA4B
:109290009C4505DD11EE903ADFF86CC3634516DBA3
:1092A00012EE103ADFF854C30B440CF1010C634585
:1092B00003D213EE103A934209DC12EE103A19442D
:1092C00061452CD213EE101AD04B994227DA12EED8
:1092D000101ACE4B994208DB13EE901A914204DB30
:1092E00010EE101AB1F17D5F19DB12EE101AC84BA7
:1092F000994209DB13EE901AC34B994204DB10EE3E
:10930000101AB1F17D5F0ADB73EE850AF4EEC60A2E
:10931000F1EE10FA31D313EE901A91422DDB10EEDC
:10932000101ABC4B994221DD03281FDAD7EDFC1A35
:10933000D7EDFD0AF4EEE01AF1EE10FA16D2D7EDF1
:10934000FE1AF4EEE10AF1EE10FA0FD2D7EDFF1A91
:10935000D4ED000AF4EEE01AF1EE10FA06D2D4EDE4
:10936000011AF4EEE10AF1EE10FA06D310EE101A2B
:10937000A54B994272DD032870DA10EE103ADFF83F
:1093800080C2C5F8D4BF594685F8D8EF634544DBA1
:1093900068BBD7F8FC03B0F17E5F28DD14EE903A8D
:1093A0009D48834223DADFF874C2236863451EDDDB
:1093B00012EE903ADFF854C2634518DA63688342CC
:1093C00015DD14EE100A904211DAF0EE620A41EE59
:1093D000690AF4EEE40AF1EE10FA08DDF0EE440A50
:1093E00041EE690AF4EEE20AF1EE10FA04DC10EE46
:1093F000100AB0F17E5F10DBF4EEC74A85F8D81F83
:10940000F1EE10FA09D234EE410AF4EEC02AF1EE80
:1094100010FA02D20420C5F8D40FA4F80CE01DE025
:10942000D7EDF70A97EDF80AF4EEC00AF1EE10FA5C
:1094300006DAD7EDF90AB4EEE00AF1EE10FAECDB49
:10944000A089401C00B2A081012807DD95F8D80F43
:1094500001287AD06FF00200C5F8D40F0220608195
:1094600097EDF80A87EDF70A97EDF90A87EDF80A04
:1094700087EDF98A0898A5F8E80F0098A5F8EA0F93
:10948000A5F8ECEF97EDFD0A87EDFC0A97EDFE0AD3
:1094900087EDFD0A87EDFE8A94ED000A87EDFF0A4D
:1094A00094ED010A84ED000A84ED018AD5F8D40F09
:1094B000002803DDB7EE080A2BEE00BAE86814288E
:1094C00076DA95ED090AD7EDD20AB4EEE00AF1EEAC
:1094D00010FA6DD2DFED520A9FED520A14212020BE
:1094E0001FEE200AFEF7A4F8DFED4F0A142120201A
:1094F00040EE0F0AB0EE600AFEF79AF8F0EE400A6E
:109500009FED4A0A1421202000EE8F0AFEF790F802
:1095100030EE6A0A86EDC30A84ED080AD7EDE50A43
:10952000B4EEE00AF1EE10FA12DDD7EDE00A97EDA5
:10953000E11A41EE000A97EDE21A21EE001A41EE1F
:10954000000A97EDE31A27E0FFE785F8D8EF85E7F3
:10955000D7EDE40AB4EEE00AF1EE10FA0EDDD7ED35
:10956000DC0A97EDDD1A41EE000A97EDDE1A21EED6
:10957000001A41EE000A97EDDF1A0DE0D7EDD80A88
:1095800097EDD91A41EE000A97EDDA1A21EE001A8A
:1095900041EE000A97EDDB1A21EE001A21EE001AC7
:1095A00041EE000AC6EDC30AC4ED080A85F850BFB3
:1095B00005F5A050009090ED010AD0ED020AB4EE3E
:1095C000E00AF1EE10FA01DD012100E000210022A5
:1095D000A4F83E23D6F80C03C4F8180184F81D2122
:1095E000D4F89820B2F1000E24DD21E0E17A943F16
:1095F000CCCC0C00295C8F3F8EC275C06F3D0A0039
:109600006666E63E6666A63F0000A03F3333933FA2
:109610003D0A973F6666663FCDCC8C3F6666863FC7
:10962000310820414A8C53423789D6410496C442BE
:1096300084F81DB1FC4B984213DBD4F8C4200A2AED
:1096400002DABEF1000F0CDCF4EECA8AF1EE10FA79
:1096500007D3B4EEEDDAF1EE10FA02DC09B11A9993
:1096600011B994F8301341B3F049884216DDA06D6A
:10967000884213DA9FEDEE0A28EE800AB4EECA0A99
:10968000F1EE10FA06D3D4F8C4000A2806DABEF1C7
:10969000000F03DD9FEDE70A86EDC30AC5ED098AD9
:1096A00094ED171AD4ED080A94F83023E24831EE0D
:1096B000600AB0EEC00AEAB16CE0F4EECA8A00209B
:1096C00086EDC38AF1EE10FA85F8500F85F8510F38
:1096D00004D20220A4F83E03052005E0B4EEEDDA42
:1096E000F1EE10FA03DD0420A4F83E03D6E7A4F857
:1096F0003EB3D3E7F0EE401A11EE901ADFF83CC308
:1097000061450FDC216E4FF07F5C614505DDF0EEB9
:10971000401A11EE901A614504DCB4F932130029A5
:1097200004DC37E0B4F93213002904DDB4F8321355
:10973000491EA4F8321310EE101ADFF804C3614575
:1097400003DD10EE901A814204DB10EE101AB1F125
:10975000824F0CDD10EE901A814203DB11EE101ADD
:10976000814201DA052100E00421A4F83213B0EEB1
:10977000681A0021B4EECA1A85F8501F85F8511FE7
:10978000F1EE10FA86EDC38AA4F83EB302D20521A9
:10979000A4F83E1384ED180AC4ED170AD4F828C3C0
:1097A0000CF1010CC4F828C394ED161AB5EEC01ADA
:1097B000F1EE10FA34DD92B3B5EEC01AF1EE10FA04
:1097C00038DDD4F88C2094ED0A0A521CC4F88C20A1
:1097D000D4F8801000290CDD8A420ADCD6EDC31AC9
:1097E00094ED1F2AF4EEC21AF1EE10FA01D294EDB4
:1097F000220A94ED212AF0EE681AF4EEC21AF1EE74
:1098000010FA01D294ED220AD6EDC31A3AEEC02A1C
:1098100061EE821A41EE001AC6EDC31A0AE0FFE7B4
:1098200095F8511F99B1002195F8502F114201D19F
:1098300086EDC38A834ADFED84CAD6F80C139142C1
:1098400001DDC6EDC3CA95F8511F11B13DE00121FC
:10985000EAE7B5EEC01AF1EE10FA36D196EDC31A6A
:1098600094ED0F0AB4EEC01AF1EE10FA2DD2B4F94D
:109870003823042A07DA86EDC38A4FF0000885F8FA
:10988000508F521C0DE0B0EE681AB4EECA1AF1EE19
:1098900010FA01D31A9A32B986EDC38A002285F8EC
:1098A000502FA4F8382394F83820012A03D0D4F894
:1098B0009020944509DA96EDC31AB4EEC01AF1EE81
:1098C00010FA02D20322A4F83E23574BD6F80C23F9
:1098D0009A4216DBD4F8C4200A2A02DABEF1000F3D
:1098E0000FDCB0EE680AB4EECA0AF1EE10FA08D343
:1098F000BAF1000F36D091BBE16AB1F17E5F04DCB2
:1099000030E011B101290CD015E0B0EE680AB4EED8
:10991000CA0AF1EE10FA0EDD10EE901A814207DC51
:1099200009E0B0EE680AB4EECA0AF1EE10FA02DD00
:109930000020A4F83A0386EDC38A002085F8500F72
:1099400085F8510FB4F83E0348B9B0EE680AB4EE9A
:10995000CA0AF1EE10FA03D20520A4F83E0301E092
:10996000A4F83EB39FED39FABEF1000F2DD1F4EE0D
:10997000CA8AF1EE10FA28DBD4F8C410D6F80C032A
:109980000A290EDA284A90424DDB05EB810101F5E8
:109990008051C1F89C00D4F8C400401CC4F8C40035
:1099A00013E0214988423EDB5FF0000005EB8001B7
:1099B00001F58051401C91ED280A092881ED270A04
:1099C000F4DB96EDC30A84ED300AD4F8C400D4F871
:1099D00098100A2840DA002925DD002838DD491EC4
:1099E000C4F8981084ED328A00210CE005EB810266
:1099F00002F5805294ED320AD2ED270A491C30EE6E
:109A0000200A84ED320A8842F0DC00EE100AD4ED20
:109A1000320A4FF00109B8EEC01A80EE810A84EDD7
:109A2000320A86EDC30A65E0000070420000C642BB
:109A30009A99993F0000C4420000B442000040409F
:109A40000000A0400000C8420000C842CDCC4C3EFF
:109A50000020C4F898004DE000294BDD0A2918D1F8
:109A600084ED328A5FF0000005EB800202F580523F
:109A700094ED320AD2ED270A401C0A2830EE200A63
:109A800084ED320AF0DBF2EE040A80EE201A84ED57
:109A9000321A94ED320AD4ED460A30EE601AB0EE76
:109AA000C11A11EE100AB0F1804F08DA30EE200A28
:109AB000C6EDC30A20EE290A84ED320A17E011EE42
:109AC000100AF84A90420EDA60EE8F0A9FEDF61AFD
:109AD00040EE010AC6EDC30A30EE200A20EE290A44
:109AE00084ED320A01E086EDC30A4FF00109491EF8
:109AF000C4F8981095F8502FD4F8F400EAB30A2867
:109B00003FDA96EDC31AB0EE480AB5EEC01AF1EE90
:109B100010FA21DD02281FDD002108E005EB81029B
:109B200002F58052491CD2ED330A30EE800A884299
:109B3000F4DC00EE900AF8EEE01AC0EE210A31EEF5
:109B4000600AB0EEC00A10EE101AB1F1824F03DDC8
:109B5000C6EDC30A4FF0010996EDC30AB5EEC00A7F
:109B6000F1EE10FA0CDD05EB800000F5805080ED81
:109B7000330AD4F8F400401C00E008E1C4F8F40013
:109B800037E1F0EE480A4FF0FF38B0EE600A0021EE
:109B900009E000BF05EB810303F58053491C93EDF9
:109BA000331A71EE200A8842F4DC01EE100AB8EE96
:109BB000C11A80EE819A92B396EDC31ABB4A11EE98
:109BC000101A91422BDD19EE101AB94A914227DD85
:109BD00005EB800101F58051D4ED331AD1ED320A45
:109BE000F4EEE10AF1EE10FA1ADBF4EEC90AF1EE36
:109BF00010FA15DBF4EEE10A4FF00008F1EE10FA6E
:109C000022D8F4EEC90AF1EE10FA1DD870EEEA0A75
:109C1000F4EEC10AF1EE10FA16D2012113E06DE064
:109C200005EB800101F5805194ED331AD1ED320A34
:109C3000F4EEC10AF1EE10FA1CDBF4EEC90AF1EE03
:109C400010FA17DB0021884605EB800101F58051F1
:109C500094ED331AD1ED320AF4EE410AF1EE10FA26
:109C600006D1F4EE490AF1EE10FA01D14FF00208E4
:109C700000211BE0F4EEC10AF1EE10FAE4D8F4EE94
:109C8000C90AF1EE10FAC8D9DEE700BF05EB810280
:109C900002F58052D2ED330AF5EEC00AF1EE10FA69
:109CA00003DD70EEC90A00EEA00A491C8842EDDC13
:109CB00000EE900AB8EEE01AC0EE010AB0EE600ABB
:109CC00003F02EFD10EE100A7A49884201DAB0EE58
:109CD0006F0AB0EE491AD6EDC30A00EE0B1AF4EE85
:109CE000C10AF1EE10FA0ADDB8F1000F02D0B8F1A6
:109CF000020F17D120EE0B0A00EE299A12E0B0EE07
:109D0000491A00EE4B1AF4EEC10AF1EE10FA16D21F
:109D1000B8F1010F02D0B8F1020F03D120EE0B0A07
:109D200000EE699A4FF0010986EDC39A96EDC30AD9
:109D3000B5EEC00AF1EE10FA5BDD002017E0D5F8B1
:109D4000D40F002803DD94F850000128EED000EE77
:109D5000AB9A89EE0C0A86EDC30AE7E705EB8001B2
:109D600001F58051401C91ED340A81ED330AD4F89D
:109D7000F410491E8142F1DCD4F8F40096EDC30AD8
:109D800005EB800000F5805080ED320A31E00528B7
:109D900026DDB0EE480A002109E000BF05EB810294
:109DA00002F58052491CD2ED330A30EE800A884217
:109DB000F4DC00EE900AB8EEE01AC0EE010A94ED71
:109DC000460A30EE601AB0EEC11A11EE100AB0F178
:109DD0007A5F02DA86EDC30A0BE0C6EDC30A08E03B
:109DE000002806DD05EB800000F5805090ED320A7A
:109DF000F0E796EDC30AD4ED160AB4EEE00AF1EEF0
:109E000010FA1DD230EEC01A2B4911EE100A88420A
:109E100016DDB5EEC00AF1EE10FA11DDB4F9380323
:109E200004281FDA401C9FED251AA4F8380320EE01
:109E3000010A9FED231A00EE810A86EDC30A11E0A4
:109E4000F5EEC00AF1EE10FA09DC94F838000128AA
:109E500005D0D4F89010D4F82803884202DA002004
:109E6000A4F8380394F8303363B3F5EEC00AF1EE8A
:109E700010FA27DDDDF800C094ED1F0A0021DCEDAB
:109E8000031AB0EE401AB0EE402AF4EEC01AD4F82D
:109E90008000F1EE10FA024600D201210F2812DAFA
:109EA000400011E000002041CDCC4C3F000070424A
:109EB0000000C642CDCCCC3C0000A0409A99193E8F
:109EC0009A99593F8BE00F3001B11046F4EEC01A59
:109ED000F1EE10FA03DD31EE800A20EE290A71EE70
:109EE0002A2AF4EEC02AF1EE10FA02D2B0EE620A8B
:109EF00006E0B4EEC01AF1EE10FA01DDB0EE410A50
:109F000096EDC31AB4EEC01AF1EE10FA67D2B4EEB1
:109F1000E11AF1EE10FA62D2D4F88C2082425EDCB3
:109F2000DCED042AF5EEC02AF1EE10FA32DD94EDF4
:109F3000083AB4EEE23AF1EE10FA2BD2B4EEE01A9F
:109F4000F1EE10FA26D261EE0F1A5FED292A40EEEB
:109F5000A21AF4EEC01AF1EE10FA18D29FEDF80A28
:109F600021EE000A9FEDF71A00EE810A86EDC30A82
:109F7000B4EEC20AF1EE10FA31D281BB9FEDF21AB3
:109F800020EE010A9FEDF11A00EE810A25E0C6EDF0
:109F9000C31A24E094ED082AB4EEE22AF1EE10FA96
:109FA0001DDDB4EEC02AF1EE10FA18DDB4EEE12AA0
:109FB000F1EE10FA13DDF4EEC10AF1EE10FA0EDD47
:109FC000B4EEE02AF1EE10FA09DDB6EE080A21EE51
:109FD000000AB5EE001A02EE010A86EDC30A96EDFC
:109FE000C30AB5EEC00AF1EE10FA0BDD10EE100A4E
:109FF000D749884204DAC6EDC30A4FF0010901E0EF
:10A0000084ED160A83B996EDC30AB5EEC00AF1EEE7
:10A0100010FA09DD84F830B30098D4ED080AC0EDD9
:10A02000040A009880ED030AD6EDC30AF5EEC00AD3
:10A03000F1EE10FA0CDD94ED0C0AF4EEC00AF1EE2C
:10A0400010FA05DD94F83003012801D186EDC30A2A
:10A0500096EDC30AB5EEC00AF1EE10FA0CDDD4EDB0
:10A060000D0AB4EEE00AF1EE10FA05D294F83003CE
:10A07000012801D1C6EDC30A2EEEAC0AC5ED098A4E
:10A0800084ED480A9DED020A20EE2C0A84ED490A6F
:10A090002EEE2C0A84ED4A0AD4ED1C0AF5EEC00A15
:10A0A000F1EE10FA19D096EDC30AB5EEC00AF1EE42
:10A0B00010FA12DD30EE200A86EDC30AB5EEC00AB2
:10A0C000F1EE10FA02D286EDC38A06E010EE100A15
:10A0D000A049884201DDC6EDC3CA94ED190AB5EE68
:10A0E000C00AF1EE10FA5BDD95F8500F28B195F833
:10A0F000510F10B994F8940020B194F894000128FD
:10A100000ED04DE0D6EDC30AF4EEC00AF1EE10FA1F
:10A1100001DD002000E0A06EE06684F894B045E028
:10A12000D4E91A0181423BDAD6EDC30AF4EEC00A43
:10A13000F1EE10FA11D286EDC30A84ED160AD4F8B6
:10A14000F40005EB800000F58050D0ED320A00EEFF
:10A15000AB0AC0EE0C0AC0ED320AE06E401CE066AD
:10A16000A16E884204D195F8502F0AB9401EE066CE
:10A17000884215D10A2913DDD4F8F4000A280FDA31
:10A18000401E08E005EB800196EDC30A01F5805101
:10A19000401C81ED330A0A28F4DB0A20C4F8F400DD
:10A1A00095F8500F28B195F8510F10B90020C4F858
:10A1B0001001002084F81401D4ED480AF5EEC00A1D
:10A1C000F1EE10FA54DD10EE901AB1F1824F4FDA31
:10A1D00084F814B1D4F81011B0EE480A06290BDA4D
:10A1E00005EB810101F58051C1ED3E0AD4F8101153
:10A1F000491CC4F810113BE000210CE005EB810282
:10A2000002F58052491CD2ED3E0A30EE800AD2EDB2
:10A210003F0AC2ED3E0AD4F81021521E8A42EDDCFC
:10A22000D4F81011B1EE081A05EB810101F5805147
:10A23000D1ED3D0A70EE800A94ED480A81ED3D0AA9
:10A2400080EE810ADFED440A60EE200A9FED431A9A
:10A2500020EE010A94ED481AB4EEE01AF1EE10FA7D
:10A2600004DCB4EEC01AF1EE10FA01D284F8140145
:10A2700095F8502F85F8512F84F81E01B9F1000F81
:10A2800002D084F81EB124E095ED090AB4EECA0AA2
:10A29000F1EE10FA1DD3B4EEEDDAF1EE10FA18DC9F
:10A2A00094ED480AD7EDD70AB4EEE00AF1EE10FAC1
:10A2B0000FD394F8141161B184F81CB194ED0B0A1A
:10A2C000B5EEC00AF1EE10FA0EDDBAF1000F09D1B9
:10A2D00002E084F81C01F1E7019929B120496B6A79
:10A2E0008B4201DA84F81C01D4F82C13002907DC16
:10A2F00096EDC30AB5EEC00AF1EE10FA03DD12B115
:10A30000491CC4F82C1394F830230723082112B1F8
:10A31000012A54D07AE0D4F85873002F76DD95EDF9
:10A32000090AD4EDD10AB4EEE00AF1EE10FA1CD21B
:10A33000B4F94023B2B1521CA4F8402317E0000046
:10A340009A99993DCDCC6C3FCDCC4C3D3333733F86
:10A35000000070420000C8423333D33F3333B33E72
:10A36000F6287C3FA4F840B301E0A4F84003B4F918
:10A3700042C3B4F94023944501DAA4F84223D4F847
:10A380002823BA4242DBB4F94223052A06DB94EDC6
:10A39000DA0A86EDC30AA4F83E3305E094EDD90A43
:10A3A00086EDC30AA4F83E1384ED160A85F850BF63
:10A3B00085F851BF84F830B3A4F860B326E095ED7A
:10A3C000090AB4EECA0AF1EE10FA08DD96EDC30AE6
:10A3D000B5EEC00AF1EE10FA01DDA4F86003B4F89E
:10A3E0006023012A12D1B4F94223052A06DB94ED39
:10A3F000DA0A86EDC30AA4F83E3305E094EDD90AE3
:10A4000086EDC30AA4F83E1384ED160A94ED150AEE
:10A41000B5EEC00AF1EE10FA18DDD4ED4B0AF4EEF9
:10A42000C00AF1EE10FA02DD84F83CB303E094F8C0
:10A430003C1301290AD186EDC38A84F81C0184F8F3
:10A44000140185F8500F0421A4F83E1394F830133A
:10A4500061B196EDC30AB5EEC00AF1EE10FA05DD62
:10A46000B4F93E13072901DAA4F83E0395F8510F19
:10A47000C0B995F8500FA8B996EDC30AB5EEC00A59
:10A48000F1EE10FA0ED1B4F83E0358B9A4F83EB379
:10A4900095ED090AB4EECA0AF1EE10FA02D20520CF
:10A4A000A4F83E036868DC2801DDDC38686009B088
:10A4B000BDEC108BBDE8FC8F2DE9F04F00F580540A
:10A4C000054694F8FC0B87B0002630B1D4F84C1444
:10A4D000D4F83C04B0EB410F03DA002007B0BDE82C
:10A4E000F08F2846FEF756F805F5305090ED590AE2
:10A4F00005F5A050069080ED010A0020009041F281
:10A50000E4702844059041F274402844049041F6D8
:10A510002C4005EB000B41F6E45005EB000A41F638
:10A520009C7005EB000942F2541005EB000800276F
:10A530003DE0DC2E39DA3A462846059900F085FCE4
:10A54000F0EE400A3A462846049900F07EFC3A466E
:10A550005946284600F06AFC01EE100A3A46514678
:10A56000B8EEC11A284600F061FC01EE900A3A46A6
:10A570004946F8EEE11A2846CDED011A00F056FCE6
:10A5800001EE900A3A464146F8EEE11A2846CDED32
:10A59000021A00F04BFC01EE900A01A92846F8EEE1
:10A5A000E11ACDED031A01F031FA761C7F1CD4F8C4
:10A5B0003C04B842BDDC871E3DE0DC2E39DA3A4669
:10A5C0002846059900F041FCF0EE400A3A4628463C
:10A5D000049900F03AFC3A465946284600F026FC19
:10A5E00001EE100A3A465146B8EEC11A284600F06C
:10A5F0001DFC01EE900A3A464946F8EEE11A28465B
:10A60000CDED011A00F012FC01EE900A3A464146E7
:10A61000F8EEE11A2846CDED021A00F007FC01EE33
:10A62000900A01A92846F8EEE11ACDED031A01F0CF
:10A63000EDF9761C7F1E002FBFDCDC2E05DC0098B8
:10A64000401C00900628FFF672AFD4F83C04A860C6
:10A65000D4F85C0BC4F89800D4F8600BC4F8C400BC
:10A66000D4F8700BC4F81001D4F86C0B05F5005643
:10A67000C4F8F40096F8280384F8300396F82913F8
:10A680002846943406F54A76FEF706F994F89C02BB
:10A69000307054F8780C401C44F8780C206BC4F8E7
:10A6A000CC0A6068C4F8C80A206EC4F8D80AE06F03
:10A6B000C4F8DC0A05F5806090EDC30A069880EDC9
:10A6C000120A2846FCF7F4FD012007E770B50021C7
:10A6D000DFED290A09E000BF00EB810202F580628C
:10A6E000491CC2ED4A0AC2ED6A0AD0F82C268A42F9
:10A6F000F2DC002300F5806438E000BF00EB830546
:10A70000B0EE600A95ED001A002284ED4A1AD0F8E6
:10A710002C160AE000EB820606F58066521C96EDC8
:10A720006A1AD6ED4A1A01EE210A9142F2DC95ED41
:10A730006E1AD4ED8A1A31EE401A21EE811A10E019
:10A7400000EB810202F58062D2ED6A1A92ED4A2A8C
:10A7500041EE021AC2ED6A1A29B1D2ED491AC2EDD0
:10A760004A1A491EECD585EDDC0A5B1CD0F8301680
:10A770009942C3DC70BD00000000000030B500F558
:10A7800080540346B0EE601A94F831041546F0EE9A
:10A79000400A10B9184600F0C3FC94F8900B012849
:10A7A00005D1B0EE410A29461846FCF778FA94F82C
:10A7B000310460B1012184F84014D4F83C14DC2940
:10A7C00002DA491CC4F83C1484F8300430BD00217E
:10A7D00084F84014F6E700002DE9F0411E462DED07
:10A7E000048B1746F0EE608A9FED0F8AB0EE409A18
:10A7F0000446F0EE481AB0EE481A0A9D00F0D6FE64
:10A8000041F23140F0EE481A0555B0EE481AF0EE2C
:10A81000680AB0EE490ABDEC048B32463946204640
:10A82000BDE8F041FFF7AABF00000000017861B960
:10A83000012101705FF0000100EB8102D0ED010AFF
:10A84000491CC2ED270A0C29F6DBD0ED200A90ED59
:10A85000271AD0ED281A20EE800AD0ED140A90EDC8
:10A86000022A00EEC10AD0ED150A00EEE10AD0ED91
:10A87000030A60EE810A42EE000A90ED042A80EDA0
:10A88000281A80ED270A90ED210A90ED291A42EE50
:10A89000210AD0ED2A1A90ED052A20EE200AD0EDEB
:10A8A000160A00EEC10AD0ED170A00EEE10AD0ED5B
:10A8B000060A60EE810A42EE000A90ED072A80ED5A
:10A8C0002A1A80ED290A90ED220A90ED2B1A42EE09
:10A8D000210AD0ED2C1A90ED082A20EE200AD0EDA6
:10A8E000180A00EEC10AD0ED190A00EEE10AD0ED17
:10A8F000090A60EE810A42EE000A90ED0A2A80ED14
:10A900002C1A80ED2B0A90ED230A90ED2D1A42EEC1
:10A91000210AD0ED2E1A90ED0B2A20EE200AD0ED60
:10A920001A0A00EEC10AD0ED1B0A00EEE10AD0EDD2
:10A930000C0A60EE810A42EE000A90ED0D2A80EDCD
:10A940002E1A80ED2D0A90ED240A90ED2F1A42EE7A
:10A95000210AD0ED301A90ED0E2A20EE200AD0ED1B
:10A960001C0A00EEC10AD0ED1D0A00EEE10AD0ED8E
:10A970000F0A60EE810A42EE000A90ED102A80ED87
:10A98000301A80ED2F0A90ED250A90ED311A42EE33
:10A99000210AD0ED321A90ED112A60EE200A90EDD6
:10A9A0001E0A40EE410A90ED1F0A40EE610A90ED4A
:10A9B000120A20EE010A02EE200A90ED132A80ED21
:10A9C000321AC0ED310A02EE210A704710B5044C6C
:10A9D0002068002803D000F005F80020206010BD9A
:10A9E000D82A002010B504460078002808D0201D81
:10A9F000FCF78CFE0020207004F58054C4F8200978
:10AA000010BD00000148006800F002B8D82A0020FC
:10AA100000F58051002291F81B0981F81B2970472D
:10AA20000149096800F002B8D82A002070B505462F
:10AA30000C46084600F03CF841F61010005D002876
:10AA40000CD004F5C0540649D4F81401286088429B
:10AA500003DD9FED040A85ED000A012070BD0000B2
:10AA60000000C8420000C8420149096800F002B86D
:10AA7000D82A002001F5C05191ED430A80ED000A6B
:10AA80007047000070B5040002D0084D286808B176
:10AA9000002070BD00F0AAF801462046FBF763FDD8
:10AAA00020462C6000F004F8012070BDD82A002058
:10AAB00070B504460078002811D141F64C112046AB
:10AAC000FBF751FD04F580554FF0FF31201DC5F80F
:10AAD0003819FCF71DFE0121217085F8481970BD59
:10AAE000014B1B6800F002B8D82A00202DE9FF4F67
:10AAF00004462DED028B81B000781D464FF0000812
:10AB0000012804D040B14FF00208022838D8E07A7A
:10AB1000000608D4032032E0012001B0BDEC028B16
:10AB200004B0BDE8F08F607918B9A07908B9E07970
:10AB300020B31846FFF7BCFFA07A0090607A217915
:10AB400000EE100A2078F8EE400A00EE100A03200A
:10AB5000B8EE400A80EE808A225C401E42EA012163
:10AB600010F0FF00F8D100EE101A81464FF0010AF4
:10AB7000F8EE408ACB4605F580561FE0042080465B
:10AB8000281DFCF773FE2BE05FF00007DDE90413DE
:10AB9000F0EE480AB0EE680A281D009AFCF7F8FDAE
:10ABA00010B1C6F8200901E0C6F820B97F1CFFB239
:10ABB0005745EBD309F1010000F0FF092178494521
:10ABC000E2D8D6F83809411C0CD0401CC0B2C6F8F7
:10ABD0003809217A884203D04FF00608C6F83819A0
:10ABE00040469AE7207AC6F83809F9E741F64C1052
:10ABF0007047000038B5034C2468009400F004F856
:10AC000038BD0000D82A00202DE9F04180462DED06
:10AC1000028B82B0B0EE408A0A9C1D4616460F4653
:10AC20002046FFF745FFB0EE480A33463A46414614
:10AC3000201D0095FCF71CFE02B00120BDEC028B2C
:10AC4000BDE8F081014A126800F002B8D82A00205D
:10AC500070B506460D4614461046FFF729FF2A46F2
:10AC60003146201DFCF71EFE012070BD0148006822
:10AC700000F002B8D82A002010B504462DED028B52
:10AC8000B0EE408AFFF714FFB0EE480A201DFCF733
:10AC900014FEBDEC028B012010BD000001490968C3
:10ACA00000F016B8D82A0020014A126800F002B855
:10ACB000D82A002070B506460D4614461046FFF708
:10ACC000F7FE2A463146201DFCF734FE012070BDF8
:10ACD00070B505460C460846FFF7EAFE2946201DDA
:10ACE000FCF7FEFD012070BD014B1B6800F002B8AF
:10ACF000D82A00202DE9F041074615460E461C468D
:10AD00001846FFF7D5FE2B4632463946201DFCF784
:10AD100047FE0120BDE8F081014A126800F002B848
:10AD2000D82A002070B506460D4614461046FFF797
:10AD3000BFFE2A463146201DFCF748FE012070BDAB
:10AD40000148006800F002B8D82A002010B5044677
:10AD50002DED028BB0EE608AF0EE408AFFF7A8FE80
:10AD6000F0EE480AB0EE680A201DFCF73DFEBDEC8F
:10AD7000028B012010BD00000148006800F002B8FD
:10AD8000D82A002010B504462DED028BB0EE408A83
:10AD9000FFF78EFEB0EE480A201DFCF761FEBDEC09
:10ADA000028B012010BD00000149096800F002B8C3
:10ADB000D82A002070B505460C460846FFF778FEF5
:10ADC0002946201DFCF759FE012070BD0149096884
:10ADD00000F002B8D82A002070B505460C46084697
:10ADE000FFF766FE2946201DFCF74FFE012070BDCF
:10ADF00000487047A19F040003220021014808F089
:10AE0000A5BE000000B0004007480021C0F8401176
:10AE1000C0F84411C0F84811C0F84C11C0F8001136
:10AE2000C0F8041117F0CEBA0010014000F58050B0
:10AE3000D0F83804801A012801EB400002D430F920
:10AE4000020C7047B0F9B601704700F58050D0F899
:10AE50003804801A012801EB800002D410ED010AA9
:10AE6000704790EDDB0A704770B5049C194D2D6852
:10AE7000854205D0174D2D68174E3560154D286059
:10AE8000164D2D688D4205D0144D2D68144E356039
:10AE9000124D2960134D2D68954205D0114D2D6836
:10AEA000114E35600F4D2A60104D2D689D4205D022
:10AEB0000E4D2D680E4E35600C4D2B600D4D2D68DE
:10AEC000A54205D00B4D2D680B4E3560094D2C6009
:10AED00070BD00007C2B0020902B0020782B0020E0
:10AEE0008C2B0020742B0020882B0020702B00203E
:10AEF000842B00206C2B0020802B00202DE9F04FAC
:10AF0000099C05460E4617469C46A0463C2801D99A
:10AF10003C3D10E005464E1E69B91726571E012A12
:10AF200009D1DFF8E490D9F80070012B03D14FF07C
:10AF30000C0CA4F10108DFF8D4A09AF800A00AEBE9
:10AF40004A0B0BEBCA0ADFF8C8B00BF80A50DFF85F
:10AF5000BCA09AF800A00AEB4A0B0BEBCA0ADFF878
:10AF6000B0B0DA448AF80160DFF8A0A09AF800A037
:10AF70000AEB4A0B0BEBCA0ADFF894B0DA448AF802
:10AF80000270DFF888A09AF800A00AEB4A0B0BEBDE
:10AF9000CA0ADFF87CB0DA448AF803C0DFF86CA094
:10AFA0009AF800A00AEB4A0B0BEBCA0ADFF860B074
:10AFB000DA448AF804804FF0AA09DFF850A09AF822
:10AFC00000A00AEBCA0ADFF84CB00BF83A90DFF8A1
:10AFD0003CA09AF800A00AEBCA0A0BEBCA0A8AF84E
:10AFE0000190DFF828A09AF800A00AEBCA0A0BEB40
:10AFF000CA0A8AF802904FF00309DFF81CA08AF809
:10B000000090BDE8F08F0000882B0020972B0020D7
:10B01000E05100207A520020982B00202DE9F04FBB
:10B02000099C05460E4617469C46A046142801D9A1
:10B03000143D11E000F128054E1E69B91726571E70
:10B04000012A09D1DFF8C890D9F80070012B03D18B
:10B050004FF00C0CA4F10108DFF8B8A09AF800A09A
:10B060000AEB4A0B0BEBCA0ADFF8ACB0DA448AF8F9
:10B070000550DFF8A0A09AF800A00AEB4A0B0BEBF2
:10B08000CA0ADFF894B0DA448AF80660DFF884A0D0
:10B090009AF800A00AEB4A0B0BEBCA0ADFF878B06B
:10B0A000DA448AF80770DFF86CA09AF800A00AEB7F
:10B0B0004A0B0BEBCA0ADFF860B0DA448AF808C022
:10B0C000DFF850A09AF800A00AEB4A0B0BEBCA0A73
:10B0D000DFF844B0DA448AF80980DFF8409099F844
:10B0E0000090A9F10109DFF82CA09AF800A00AEB62
:10B0F0004A0B0BEBCA0ADFF820B0DA448AF80A9050
:10B100004FF00009DFF814A08AF80090BDE8F08F36
:10B11000882B0020972B0020E0510020982B002046
:10B120009FED0A0A002100BF00EB810202F5A05248
:10B13000491C82ED1D0A82EDF90ADC29F4DB00F5D9
:10B1400080500021C0F83814704700000000000053
:10B150002DE9FE434FF4827840460BF031FA4C4F14
:10B1600000254C4C012600B340460BF031FA94F810
:10B170002E0010B194F82F10D1B18DF800506168F5
:10B1800001912189ADF80810E26832B1218B618309
:10B1900062602181E56010B102E0257400E03E604C
:10B1A00021686846884784F82F5094F82E0060B3D1
:10B1B0004FF4807738460BF003FA30B338460BF083
:10B1C00007FA628B94F82D108A420AD9A2EB01008B
:10B1D00080B260832289A2EB0000626802EB40002B
:10B1E00005E007D1E06828B184F82F6065830BF093
:10B1F000D5F904E08A4202D184F82F606583404685
:10B200000BF0E6F92248001D06604FF488773846B7
:10B210000BF0D6F948B138460BF0DAF92574022064
:10B220008DF800002168684688474FF48A773846D1
:10B230000BF0C6F928B138460BF0CAF92574BDE801
:10B24000FE834FF000484FF48C7967691DE000BF22
:10B25000B7FA87F028FA00F109EB80058F432846FA
:10B260000BF0AEF988B128460BF0B2F9A5F58C7554
:10B27000E8088DF8040045F38000401C8DF800605C
:10B280008DF80500216868468847002FE0D1D6E791
:10B29000007000402038002001F058BF70B50E4605
:10B2A000144900EB400001EBC0051446E86A18356C
:10B2B00020B101280FD0022805D113E0284601F063
:10B2C00079FFA04201D2002411E0224631462846EF
:10B2D00001F0A8FF0BE0284601F06CFFA042F4D279
:10B2E0000446F2E73146284601F06FFF0446204647
:10B2F00070BD00000C4100200149024817F026B93A
:10B30000C03700200030004004480549401AC008FA
:10B31000032101EB004003A10AF040BF645904007F
:10B32000A458040053544B383332785F4952515F6C
:10B33000416E795F68616E646C6572000021024A3B
:10B34000084603F039BE00004DFE030010B514207E
:10B35000B62114F097FD1120802114F093FD0F20E9
:10B36000052114F08FFD10200A2114F08BFD3420EC
:10B37000042114F087FD3D20202114F083FD3E20A0
:10B38000C02114F07FFD1920012114F07BFD1A204B
:10B39000402114F077FD21200B2114F073FD2020B3
:10B3A000052114F06FFD1720BDE81040402114F076
:10B3B00069BD00284FF0110001D0562100E0802126
:10B3C00014F060BD08B5344815F010FA10F0FF0F06
:10B3D00027D10121084614F0E5FF0121092014F0CE
:10B3E000E1FF0121022014F0DDFF0121032014F010
:10B3F000D9FF0121042014F0D5FF0121052014F00C
:10B40000D1FF0121062014F0CDFF0121072014F007
:10B41000C9FF0121082014F0C5FF01210A2014F002
:10B42000C1FF14F0B7FF02210A2015F0D7FA14F07B
:10B43000B5FF1E21032015F0ECFA01231E22462140
:10B44000B42015F099FA0521062015F0D1FA012053
:10B4500015F0BCFA502015F0E4FAFF208DF800003A
:10B460006946002014F0F4FC0C480D499DF80020BA
:10B47000401AC008032101EB00400AA10AF092FE25
:10B480009DF80000262806D1FFF760FF00F016F8AF
:10B490000120FFF78EFF08BDA02A00206459040098
:10B4A000A458040073746B383332785F6964203DAC
:10B4B000203078253032580A0000000008B50BF023
:10B4C0004FFC08B103F000FB1048114A69460068C0
:10B4D000009003208DF801008DF8000000200BF093
:10B4E000D9FB08B103F0F0FA012100200BF082FB38
:10B4F000084A694605200BF0CDFB08B103F0E4FAD9
:10B50000012105200BF076FB08BD0000D03D0400B2
:10B5100009B302003DB302000FB430B5B3B0054625
:10B520000C4614F073FF2840B0B114F069FFA0423C
:10B5300012D801A92046FCF777FC39A800901AA878
:10B54000009A389901F0A4FE002000901AAA01A9DF
:10B5500003A0054B1B68984733B030BC5DF814FB63
:10B560002573202573000000F42A002016F078BE11
:10B570000BF006BA2DE9F84304460D4616461F4661
:10B58000DDF820800020084908703B4632462946F5
:10B590002046CDF80080FFF741FD00F065FB0FF07D
:10B5A000B9FBBDE8F8830000A82B00202DE9F04787
:10B5B00089462DED048B0446B0EE609ADFEDFE8ADD
:10B5C00000212020FCF734F8B0EE408A0021202032
:10B5D000B0EE490AFCF72CF804F580569FEDF71AF7
:10B5E000DFEDF71AD6F85C1BB0EE003AF7EE000A72
:10B5F0004FF0000A04F5C05811B9D6F8680B28B10D
:10B60000D6F8680B002847DD401E4CE0B5EEC08A36
:10B61000C6F864ABF1EE10FA3DDDD8EDD52AF5EEB3
:10B62000C02AF1EE10FA36DDB5EEC00AF1EE10FADE
:10B630007BDDD8EDD63AF5EEC03AF1EE10FA74DDC6
:10B6400082EE882AD6F8600B0A2801D1B0EE611A82
:10B650000A2021EE031A71EE202AF4EEC22AF1EE3E
:10B6600010FA06D370EEC11AF4EEC21AF1EE10FA17
:10B6700001DDC6F85C0BC3EE801AF4EEE12AF1EEB0
:10B6800010FA06D370EEC10AF4EEE10AF1EE10FAF8
:10B690004BDDC6F85C0B48E0D6F8640B052805DDE9
:10B6A0001420C6F85CABC6F8680B3EE0B5EEC08A65
:10B6B000F1EE10FA39DD98EDD52AB5EEC02AF1EE9B
:10B6C00010FA32DDB5EEC00AF1EE10FA2DDDD8ED3C
:10B6D000D63AF5EEC03AF1EE10FA26DDC2EE082AAF
:10B6E000D6F8601B0A2983EE802A01D1B0EE611AD8
:10B6F00021EE031A71EE201AF4EEE21AF1EE10FABE
:10B7000010D370EEC10AF4EEE20AF1EE10FA09DC91
:10B71000F4EEC21AF1EE10FA04D3F4EEC20AF1EE1E
:10B7200010FA02DD401CC6F8640B88EDD58A04F5DA
:10B73000A05788EDD60AD7ED1B0A70EE880AC7ED30
:10B740001B0AD7ED1C0A30EE800A87ED1C0AD9F8D7
:10B750000010D9F80400494300FB0011D9F8080093
:10B7600000FB001000EE100AB8EEC00A01F0D8FF8E
:10B7700004F5E055D5ED060A30EE200A85ED060AFF
:10B7800099ED000AD5ED080AB8EEC00A30EE800A3D
:10B7900085ED080A99ED010AD5ED090AB8EEC00A4F
:10B7A00030EE800A85ED090A99ED020AD5ED0A0A04
:10B7B000B8EEC00A30EE800A85ED0A0AD6F87C0B96
:10B7C000401CC6F87C0B01287ED197ED1C0A002195
:10B7D000202020EE280A87ED1C0AD7ED1B0A60EE18
:10B7E000A80AC7ED1B0AFBF723FF87ED1C0A97ED9C
:10B7F0001B0A00212020FBF71BFF87ED1B0AD6F850
:10B800003804002104EB800000F5A05080EDF90A17
:10B81000D6F8380497ED1C0A04EB800000F5A05020
:10B8200080ED1D0A95ED060A2020FBF701FF85ED4E
:10B83000060ABDEEC00AD6F8381404EB410110EE3A
:10B84000100A01F58051A1F82C0C95ED060A85ED42
:10B85000070A9FED5C0A5C4885ED060ADFED5B0A8E
:10B86000296A814201DDC5ED080A4FF047429FED8C
:10B87000581A296A914201D985ED081A696A8142EC
:10B8800001DDC5ED090A696A914201D985ED091A00
:10B89000A96A814201DDC5ED0A0AA86A904201D970
:10B8A00085ED0A1AD5ED080AD6F83814FDEEE00A3F
:10B8B00004EB410101F5805110EE900A4000A1F81F
:10B8C000E40D85ED080A00E09CE0D5ED090AD6F804
:10B8D0003814FDEEE00A04EB410101F5805110EE51
:10B8E000900A4000A1F89C0F85ED090AD5ED0A0ADF
:10B8F000D6F83814FDEEE00A04EB410101F50051E1
:10B9000010EE900A4000A1F8540104F5005085EDB6
:10B910000A0AB0F90C532DB980EDC70A80EDC80AA8
:10B9200080EDC90AD6F8382490EDC71A04EB42031B
:10B9300003F580516D1CB1F9E44D04EBD47464102F
:10B9400000EE904AF8EEE00A30EE811A80EDC71A58
:10B95000B1F99C1FD0EDC81A01EBD171491000EE6E
:10B96000901A42F25411F8EEE00A70EEA11AC0EDFE
:10B97000C81A595E90EDC92A01EBD171491000EE49
:10B98000901A29B21929F8EEE00A30EE822A80EDE9
:10B99000C92AA0F80C131FD1F3EE090AC1EE202A20
:10B9A00081EEA01AC0EDC42A80EDC51A82EE201ADD
:10B9B00080EDC61A0EE000000AD7233C8FC2753D09
:10B9C0000AD7A33D0000000000FEFF4600FEFF4630
:10B9D000000000C7A0F80CA3DB2A03DA521CC6F84B
:10B9E000382401E0C6F838A4D7ED1B0AC8EDDD0AFB
:10B9F000D7ED1C0AC8EDDE0A87ED1B0A87ED1C0A8D
:10BA0000C6F87CABBDEC048BBDE8F08710B50268CE
:10BA100000EB820282ED0B0A0268BDEEC10A00EB68
:10BA20008202C2EDE70A036810EE102A00EB43031E
:10BA300003F58053A3F83C2100F58052002392F8CF
:10BA4000F4426CB1D2EDC40A91ED000AF4EEC00AE2
:10BA5000F1EE10FA2CD3D2F8F842DC2C28D02BE0EF
:10BA600091ED000A82EDC40A91ED000A82EDC50A4B
:10BA700091ED010A82EDC60A91ED010A82EDC70A35
:10BA800091ED020A82EDC80A91ED020A012182EDD0
:10BA9000C90AC2F8F832C2F8FC32C2F80033C2F860
:10BAA0000433C2F80833C2F80C3382F8F41258E0B9
:10BAB00082EDC40AC2F8F832D2EDC50A91ED000A4F
:10BAC000F4EEC00AF1EE10FA03DCD2F8FC42DC2CF2
:10BAD00003D182EDC50AC2F8FC32D2EDC60A91ED5F
